{
	"Smart Contract Management - ETH + AVAX/contracts/Assessment.sol": {
		"Assessment": {
			"abi": [
				{
					"inputs": [
						{
							"internalType": "uint256",
							"name": "initBalance",
							"type": "uint256"
						}
					],
					"stateMutability": "payable",
					"type": "constructor"
				},
				{
					"anonymous": false,
					"inputs": [
						{
							"indexed": false,
							"internalType": "string",
							"name": "candidate",
							"type": "string"
						}
					],
					"name": "CandidateAdded",
					"type": "event"
				},
				{
					"anonymous": false,
					"inputs": [
						{
							"indexed": false,
							"internalType": "uint256",
							"name": "amount",
							"type": "uint256"
						}
					],
					"name": "Deposit",
					"type": "event"
				},
				{
					"anonymous": false,
					"inputs": [
						{
							"indexed": false,
							"internalType": "address",
							"name": "voter",
							"type": "address"
						},
						{
							"indexed": false,
							"internalType": "string",
							"name": "candidate",
							"type": "string"
						}
					],
					"name": "VoteCasted",
					"type": "event"
				},
				{
					"anonymous": false,
					"inputs": [
						{
							"indexed": false,
							"internalType": "uint256",
							"name": "amount",
							"type": "uint256"
						}
					],
					"name": "Withdraw",
					"type": "event"
				},
				{
					"inputs": [
						{
							"internalType": "string",
							"name": "_candidate",
							"type": "string"
						}
					],
					"name": "addCandidate",
					"outputs": [],
					"stateMutability": "nonpayable",
					"type": "function"
				},
				{
					"inputs": [],
					"name": "balance",
					"outputs": [
						{
							"internalType": "uint256",
							"name": "",
							"type": "uint256"
						}
					],
					"stateMutability": "view",
					"type": "function"
				},
				{
					"inputs": [
						{
							"internalType": "uint256",
							"name": "",
							"type": "uint256"
						}
					],
					"name": "candidates",
					"outputs": [
						{
							"internalType": "string",
							"name": "",
							"type": "string"
						}
					],
					"stateMutability": "view",
					"type": "function"
				},
				{
					"inputs": [],
					"name": "deposit",
					"outputs": [],
					"stateMutability": "payable",
					"type": "function"
				},
				{
					"inputs": [],
					"name": "getBalance",
					"outputs": [
						{
							"internalType": "uint256",
							"name": "",
							"type": "uint256"
						}
					],
					"stateMutability": "view",
					"type": "function"
				},
				{
					"inputs": [
						{
							"internalType": "string",
							"name": "_candidate",
							"type": "string"
						}
					],
					"name": "getVotes",
					"outputs": [
						{
							"internalType": "uint256",
							"name": "",
							"type": "uint256"
						}
					],
					"stateMutability": "view",
					"type": "function"
				},
				{
					"inputs": [],
					"name": "owner",
					"outputs": [
						{
							"internalType": "address payable",
							"name": "",
							"type": "address"
						}
					],
					"stateMutability": "view",
					"type": "function"
				},
				{
					"inputs": [
						{
							"internalType": "string",
							"name": "_candidate",
							"type": "string"
						}
					],
					"name": "vote",
					"outputs": [],
					"stateMutability": "nonpayable",
					"type": "function"
				},
				{
					"inputs": [
						{
							"internalType": "uint256",
							"name": "_withdrawAmount",
							"type": "uint256"
						}
					],
					"name": "withdraw",
					"outputs": [],
					"stateMutability": "nonpayable",
					"type": "function"
				}
			],
			"devdoc": {
				"kind": "dev",
				"methods": {},
				"version": 1
			},
			"evm": {
				"assembly": "    /* \"Smart Contract Management - ETH + AVAX/contracts/Assessment.sol\":64:2190  contract Assessment {... */\n  mstore(0x40, 0x80)\n    /* \"Smart Contract Management - ETH + AVAX/contracts/Assessment.sol\":449:562  constructor(uint initBalance) payable {... */\n  mload(0x40)\n  sub(codesize, bytecodeSize)\n  dup1\n  bytecodeSize\n  dup4\n  codecopy\n  dup2\n  dup2\n  add\n  0x40\n  mstore\n  dup2\n  add\n  swap1\n  tag_1\n  swap2\n  swap1\n  tag_2\n  jump\t// in\ntag_1:\n    /* \"Smart Contract Management - ETH + AVAX/contracts/Assessment.sol\":513:523  msg.sender */\n  caller\n    /* \"Smart Contract Management - ETH + AVAX/contracts/Assessment.sol\":497:502  owner */\n  0x00\n  dup1\n    /* \"Smart Contract Management - ETH + AVAX/contracts/Assessment.sol\":497:524  owner = payable(msg.sender) */\n  0x0100\n  exp\n  dup2\n  sload\n  dup2\n  0xffffffffffffffffffffffffffffffffffffffff\n  mul\n  not\n  and\n  swap1\n  dup4\n  0xffffffffffffffffffffffffffffffffffffffff\n  and\n  mul\n  or\n  swap1\n  sstore\n  pop\n    /* \"Smart Contract Management - ETH + AVAX/contracts/Assessment.sol\":544:555  initBalance */\n  dup1\n    /* \"Smart Contract Management - ETH + AVAX/contracts/Assessment.sol\":534:541  balance */\n  0x01\n    /* \"Smart Contract Management - ETH + AVAX/contracts/Assessment.sol\":534:555  balance = initBalance */\n  dup2\n  swap1\n  sstore\n  pop\n    /* \"Smart Contract Management - ETH + AVAX/contracts/Assessment.sol\":449:562  constructor(uint initBalance) payable {... */\n  pop\n    /* \"Smart Contract Management - ETH + AVAX/contracts/Assessment.sol\":64:2190  contract Assessment {... */\n  jump(tag_5)\n    /* \"#utility.yul\":88:205   */\ntag_7:\n    /* \"#utility.yul\":197:198   */\n  0x00\n    /* \"#utility.yul\":194:195   */\n  dup1\n    /* \"#utility.yul\":187:199   */\n  revert\n    /* \"#utility.yul\":334:411   */\ntag_9:\n    /* \"#utility.yul\":371:378   */\n  0x00\n    /* \"#utility.yul\":400:405   */\n  dup2\n    /* \"#utility.yul\":389:405   */\n  swap1\n  pop\n    /* \"#utility.yul\":334:411   */\n  swap2\n  swap1\n  pop\n  jump\t// out\n    /* \"#utility.yul\":417:539   */\ntag_10:\n    /* \"#utility.yul\":490:514   */\n  tag_18\n    /* \"#utility.yul\":508:513   */\n  dup2\n    /* \"#utility.yul\":490:514   */\n  tag_9\n  jump\t// in\ntag_18:\n    /* \"#utility.yul\":483:488   */\n  dup2\n    /* \"#utility.yul\":480:515   */\n  eq\n    /* \"#utility.yul\":470:533   */\n  tag_19\n  jumpi\n    /* \"#utility.yul\":529:530   */\n  0x00\n    /* \"#utility.yul\":526:527   */\n  dup1\n    /* \"#utility.yul\":519:531   */\n  revert\n    /* \"#utility.yul\":470:533   */\ntag_19:\n    /* \"#utility.yul\":417:539   */\n  pop\n  jump\t// out\n    /* \"#utility.yul\":545:688   */\ntag_11:\n    /* \"#utility.yul\":602:607   */\n  0x00\n    /* \"#utility.yul\":633:639   */\n  dup2\n    /* \"#utility.yul\":627:640   */\n  mload\n    /* \"#utility.yul\":618:640   */\n  swap1\n  pop\n    /* \"#utility.yul\":649:682   */\n  tag_21\n    /* \"#utility.yul\":676:681   */\n  dup2\n    /* \"#utility.yul\":649:682   */\n  tag_10\n  jump\t// in\ntag_21:\n    /* \"#utility.yul\":545:688   */\n  swap3\n  swap2\n  pop\n  pop\n  jump\t// out\n    /* \"#utility.yul\":694:1045   */\ntag_2:\n    /* \"#utility.yul\":764:770   */\n  0x00\n    /* \"#utility.yul\":813:815   */\n  0x20\n    /* \"#utility.yul\":801:810   */\n  dup3\n    /* \"#utility.yul\":792:799   */\n  dup5\n    /* \"#utility.yul\":788:811   */\n  sub\n    /* \"#utility.yul\":784:816   */\n  slt\n    /* \"#utility.yul\":781:900   */\n  iszero\n  tag_23\n  jumpi\n    /* \"#utility.yul\":819:898   */\n  tag_24\n  tag_7\n  jump\t// in\ntag_24:\n    /* \"#utility.yul\":781:900   */\ntag_23:\n    /* \"#utility.yul\":939:940   */\n  0x00\n    /* \"#utility.yul\":964:1028   */\n  tag_25\n    /* \"#utility.yul\":1020:1027   */\n  dup5\n    /* \"#utility.yul\":1011:1017   */\n  dup3\n    /* \"#utility.yul\":1000:1009   */\n  dup6\n    /* \"#utility.yul\":996:1018   */\n  add\n    /* \"#utility.yul\":964:1028   */\n  tag_11\n  jump\t// in\ntag_25:\n    /* \"#utility.yul\":954:1028   */\n  swap2\n  pop\n    /* \"#utility.yul\":910:1038   */\n  pop\n    /* \"#utility.yul\":694:1045   */\n  swap3\n  swap2\n  pop\n  pop\n  jump\t// out\n    /* \"Smart Contract Management - ETH + AVAX/contracts/Assessment.sol\":64:2190  contract Assessment {... */\ntag_5:\n  dataSize(sub_0)\n  dup1\n  dataOffset(sub_0)\n  0x00\n  codecopy\n  0x00\n  return\nstop\n\nsub_0: assembly {\n        /* \"Smart Contract Management - ETH + AVAX/contracts/Assessment.sol\":64:2190  contract Assessment {... */\n      mstore(0x40, 0x80)\n      jumpi(tag_1, lt(calldatasize, 0x04))\n      shr(0xe0, calldataload(0x00))\n      dup1\n      0x805265e5\n      gt\n      tag_11\n      jumpi\n      dup1\n      0x805265e5\n      eq\n      tag_6\n      jumpi\n      dup1\n      0x8da5cb5b\n      eq\n      tag_7\n      jumpi\n      dup1\n      0xb69ef8a8\n      eq\n      tag_8\n      jumpi\n      dup1\n      0xd0e30db0\n      eq\n      tag_9\n      jumpi\n      dup1\n      0xfc36e15b\n      eq\n      tag_10\n      jumpi\n      jump(tag_1)\n    tag_11:\n      dup1\n      0x12065fe0\n      eq\n      tag_2\n      jumpi\n      dup1\n      0x2e1a7d4d\n      eq\n      tag_3\n      jumpi\n      dup1\n      0x3477ee2e\n      eq\n      tag_4\n      jumpi\n      dup1\n      0x462e91ec\n      eq\n      tag_5\n      jumpi\n    tag_1:\n      0x00\n      dup1\n      revert\n        /* \"Smart Contract Management - ETH + AVAX/contracts/Assessment.sol\":568:665  function getBalance() public view returns (uint256) {... */\n    tag_2:\n      callvalue\n      dup1\n      iszero\n      tag_12\n      jumpi\n      0x00\n      dup1\n      revert\n    tag_12:\n      pop\n      tag_13\n      tag_14\n      jump\t// in\n    tag_13:\n      mload(0x40)\n      tag_15\n      swap2\n      swap1\n      tag_16\n      jump\t// in\n    tag_15:\n      mload(0x40)\n      dup1\n      swap2\n      sub\n      swap1\n      return\n        /* \"Smart Contract Management - ETH + AVAX/contracts/Assessment.sol\":860:1212  function withdraw(uint256 _withdrawAmount) public {... */\n    tag_3:\n      callvalue\n      dup1\n      iszero\n      tag_17\n      jumpi\n      0x00\n      dup1\n      revert\n    tag_17:\n      pop\n      tag_18\n      0x04\n      dup1\n      calldatasize\n      sub\n      dup2\n      add\n      swap1\n      tag_19\n      swap2\n      swap1\n      tag_20\n      jump\t// in\n    tag_19:\n      tag_21\n      jump\t// in\n    tag_18:\n      stop\n        /* \"Smart Contract Management - ETH + AVAX/contracts/Assessment.sol\":152:178  string[] public candidates */\n    tag_4:\n      callvalue\n      dup1\n      iszero\n      tag_22\n      jumpi\n      0x00\n      dup1\n      revert\n    tag_22:\n      pop\n      tag_23\n      0x04\n      dup1\n      calldatasize\n      sub\n      dup2\n      add\n      swap1\n      tag_24\n      swap2\n      swap1\n      tag_20\n      jump\t// in\n    tag_24:\n      tag_25\n      jump\t// in\n    tag_23:\n      mload(0x40)\n      tag_26\n      swap2\n      swap1\n      tag_27\n      jump\t// in\n    tag_26:\n      mload(0x40)\n      dup1\n      swap2\n      sub\n      swap1\n      return\n        /* \"Smart Contract Management - ETH + AVAX/contracts/Assessment.sol\":1218:1358  function addCandidate(string memory _candidate) public {... */\n    tag_5:\n      callvalue\n      dup1\n      iszero\n      tag_28\n      jumpi\n      0x00\n      dup1\n      revert\n    tag_28:\n      pop\n      tag_29\n      0x04\n      dup1\n      calldatasize\n      sub\n      dup2\n      add\n      swap1\n      tag_30\n      swap2\n      swap1\n      tag_31\n      jump\t// in\n    tag_30:\n      tag_32\n      jump\t// in\n    tag_29:\n      stop\n        /* \"Smart Contract Management - ETH + AVAX/contracts/Assessment.sol\":1676:1859  function getVotes(string memory _candidate) public view returns (uint256) {... */\n    tag_6:\n      callvalue\n      dup1\n      iszero\n      tag_33\n      jumpi\n      0x00\n      dup1\n      revert\n    tag_33:\n      pop\n      tag_34\n      0x04\n      dup1\n      calldatasize\n      sub\n      dup2\n      add\n      swap1\n      tag_35\n      swap2\n      swap1\n      tag_31\n      jump\t// in\n    tag_35:\n      tag_36\n      jump\t// in\n    tag_34:\n      mload(0x40)\n      tag_37\n      swap2\n      swap1\n      tag_16\n      jump\t// in\n    tag_37:\n      mload(0x40)\n      dup1\n      swap2\n      sub\n      swap1\n      return\n        /* \"Smart Contract Management - ETH + AVAX/contracts/Assessment.sol\":90:118  address payable public owner */\n    tag_7:\n      callvalue\n      dup1\n      iszero\n      tag_38\n      jumpi\n      0x00\n      dup1\n      revert\n    tag_38:\n      pop\n      tag_39\n      tag_40\n      jump\t// in\n    tag_39:\n      mload(0x40)\n      tag_41\n      swap2\n      swap1\n      tag_42\n      jump\t// in\n    tag_41:\n      mload(0x40)\n      dup1\n      swap2\n      sub\n      swap1\n      return\n        /* \"Smart Contract Management - ETH + AVAX/contracts/Assessment.sol\":124:146  uint256 public balance */\n    tag_8:\n      callvalue\n      dup1\n      iszero\n      tag_43\n      jumpi\n      0x00\n      dup1\n      revert\n    tag_43:\n      pop\n      tag_44\n      tag_45\n      jump\t// in\n    tag_44:\n      mload(0x40)\n      tag_46\n      swap2\n      swap1\n      tag_16\n      jump\t// in\n    tag_46:\n      mload(0x40)\n      dup1\n      swap2\n      sub\n      swap1\n      return\n        /* \"Smart Contract Management - ETH + AVAX/contracts/Assessment.sol\":671:854  function deposit() public payable {... */\n    tag_9:\n      tag_47\n      tag_48\n      jump\t// in\n    tag_47:\n      stop\n        /* \"Smart Contract Management - ETH + AVAX/contracts/Assessment.sol\":1364:1670  function vote(string memory _candidate) public {... */\n    tag_10:\n      callvalue\n      dup1\n      iszero\n      tag_49\n      jumpi\n      0x00\n      dup1\n      revert\n    tag_49:\n      pop\n      tag_50\n      0x04\n      dup1\n      calldatasize\n      sub\n      dup2\n      add\n      swap1\n      tag_51\n      swap2\n      swap1\n      tag_31\n      jump\t// in\n    tag_51:\n      tag_52\n      jump\t// in\n    tag_50:\n      stop\n        /* \"Smart Contract Management - ETH + AVAX/contracts/Assessment.sol\":568:665  function getBalance() public view returns (uint256) {... */\n    tag_14:\n        /* \"Smart Contract Management - ETH + AVAX/contracts/Assessment.sol\":611:618  uint256 */\n      0x00\n        /* \"Smart Contract Management - ETH + AVAX/contracts/Assessment.sol\":637:658  address(this).balance */\n      selfbalance\n        /* \"Smart Contract Management - ETH + AVAX/contracts/Assessment.sol\":630:658  return address(this).balance */\n      swap1\n      pop\n        /* \"Smart Contract Management - ETH + AVAX/contracts/Assessment.sol\":568:665  function getBalance() public view returns (uint256) {... */\n      swap1\n      jump\t// out\n        /* \"Smart Contract Management - ETH + AVAX/contracts/Assessment.sol\":860:1212  function withdraw(uint256 _withdrawAmount) public {... */\n    tag_21:\n        /* \"Smart Contract Management - ETH + AVAX/contracts/Assessment.sol\":942:947  owner */\n      0x00\n      dup1\n      sload\n      swap1\n      0x0100\n      exp\n      swap1\n      div\n      0xffffffffffffffffffffffffffffffffffffffff\n      and\n        /* \"Smart Contract Management - ETH + AVAX/contracts/Assessment.sol\":928:947  msg.sender == owner */\n      0xffffffffffffffffffffffffffffffffffffffff\n      and\n        /* \"Smart Contract Management - ETH + AVAX/contracts/Assessment.sol\":928:938  msg.sender */\n      caller\n        /* \"Smart Contract Management - ETH + AVAX/contracts/Assessment.sol\":928:947  msg.sender == owner */\n      0xffffffffffffffffffffffffffffffffffffffff\n      and\n      eq\n        /* \"Smart Contract Management - ETH + AVAX/contracts/Assessment.sol\":920:989  require(msg.sender == owner, \"You are not the owner of this account\") */\n      tag_55\n      jumpi\n      mload(0x40)\n      0x08c379a000000000000000000000000000000000000000000000000000000000\n      dup2\n      mstore\n      0x04\n      add\n      tag_56\n      swap1\n      tag_57\n      jump\t// in\n    tag_56:\n      mload(0x40)\n      dup1\n      swap2\n      sub\n      swap1\n      revert\n    tag_55:\n        /* \"Smart Contract Management - ETH + AVAX/contracts/Assessment.sol\":1032:1047  _withdrawAmount */\n      dup1\n        /* \"Smart Contract Management - ETH + AVAX/contracts/Assessment.sol\":1007:1028  address(this).balance */\n      selfbalance\n        /* \"Smart Contract Management - ETH + AVAX/contracts/Assessment.sol\":1007:1047  address(this).balance >= _withdrawAmount */\n      lt\n      iszero\n        /* \"Smart Contract Management - ETH + AVAX/contracts/Assessment.sol\":999:1072  require(address(this).balance >= _withdrawAmount, \"Insufficient balance\") */\n      tag_58\n      jumpi\n      mload(0x40)\n      0x08c379a000000000000000000000000000000000000000000000000000000000\n      dup2\n      mstore\n      0x04\n      add\n      tag_59\n      swap1\n      tag_60\n      jump\t// in\n    tag_59:\n      mload(0x40)\n      dup1\n      swap2\n      sub\n      swap1\n      revert\n    tag_58:\n        /* \"Smart Contract Management - ETH + AVAX/contracts/Assessment.sol\":1094:1109  _withdrawAmount */\n      dup1\n        /* \"Smart Contract Management - ETH + AVAX/contracts/Assessment.sol\":1083:1090  balance */\n      0x01\n      0x00\n        /* \"Smart Contract Management - ETH + AVAX/contracts/Assessment.sol\":1083:1109  balance -= _withdrawAmount */\n      dup3\n      dup3\n      sload\n      tag_61\n      swap2\n      swap1\n      tag_62\n      jump\t// in\n    tag_61:\n      swap3\n      pop\n      pop\n      dup2\n      swap1\n      sstore\n      pop\n        /* \"Smart Contract Management - ETH + AVAX/contracts/Assessment.sol\":1127:1137  msg.sender */\n      caller\n        /* \"Smart Contract Management - ETH + AVAX/contracts/Assessment.sol\":1119:1147  payable(msg.sender).transfer */\n      0xffffffffffffffffffffffffffffffffffffffff\n      and\n        /* \"Smart Contract Management - ETH + AVAX/contracts/Assessment.sol\":1119:1164  payable(msg.sender).transfer(_withdrawAmount) */\n      0x08fc\n        /* \"Smart Contract Management - ETH + AVAX/contracts/Assessment.sol\":1148:1163  _withdrawAmount */\n      dup3\n        /* \"Smart Contract Management - ETH + AVAX/contracts/Assessment.sol\":1119:1164  payable(msg.sender).transfer(_withdrawAmount) */\n      swap1\n      dup2\n      iszero\n      mul\n      swap1\n      mload(0x40)\n      0x00\n      mload(0x40)\n      dup1\n      dup4\n      sub\n      dup2\n      dup6\n      dup9\n      dup9\n      call\n      swap4\n      pop\n      pop\n      pop\n      pop\n      iszero\n      dup1\n      iszero\n      tag_64\n      jumpi\n      returndatasize\n      0x00\n      dup1\n      returndatacopy\n      revert(0x00, returndatasize)\n    tag_64:\n      pop\n        /* \"Smart Contract Management - ETH + AVAX/contracts/Assessment.sol\":1180:1205  Withdraw(_withdrawAmount) */\n      0x5b6b431d4476a211bb7d41c20d1aab9ae2321deee0d20be3d9fc9b1093fa6e3d\n        /* \"Smart Contract Management - ETH + AVAX/contracts/Assessment.sol\":1189:1204  _withdrawAmount */\n      dup2\n        /* \"Smart Contract Management - ETH + AVAX/contracts/Assessment.sol\":1180:1205  Withdraw(_withdrawAmount) */\n      mload(0x40)\n      tag_65\n      swap2\n      swap1\n      tag_16\n      jump\t// in\n    tag_65:\n      mload(0x40)\n      dup1\n      swap2\n      sub\n      swap1\n      log1\n        /* \"Smart Contract Management - ETH + AVAX/contracts/Assessment.sol\":860:1212  function withdraw(uint256 _withdrawAmount) public {... */\n      pop\n      jump\t// out\n        /* \"Smart Contract Management - ETH + AVAX/contracts/Assessment.sol\":152:178  string[] public candidates */\n    tag_25:\n      0x02\n      dup2\n      dup2\n      sload\n      dup2\n      lt\n      tag_66\n      jumpi\n      0x00\n      dup1\n      revert\n    tag_66:\n      swap1\n      0x00\n      mstore\n      keccak256(0x00, 0x20)\n      add\n      0x00\n      swap2\n      pop\n      swap1\n      pop\n      dup1\n      sload\n      tag_68\n      swap1\n      tag_69\n      jump\t// in\n    tag_68:\n      dup1\n      0x1f\n      add\n      0x20\n      dup1\n      swap2\n      div\n      mul\n      0x20\n      add\n      mload(0x40)\n      swap1\n      dup2\n      add\n      0x40\n      mstore\n      dup1\n      swap3\n      swap2\n      swap1\n      dup2\n      dup2\n      mstore\n      0x20\n      add\n      dup3\n      dup1\n      sload\n      tag_70\n      swap1\n      tag_69\n      jump\t// in\n    tag_70:\n      dup1\n      iszero\n      tag_71\n      jumpi\n      dup1\n      0x1f\n      lt\n      tag_72\n      jumpi\n      0x0100\n      dup1\n      dup4\n      sload\n      div\n      mul\n      dup4\n      mstore\n      swap2\n      0x20\n      add\n      swap2\n      jump(tag_71)\n    tag_72:\n      dup3\n      add\n      swap2\n      swap1\n      0x00\n      mstore\n      keccak256(0x00, 0x20)\n      swap1\n    tag_73:\n      dup2\n      sload\n      dup2\n      mstore\n      swap1\n      0x01\n      add\n      swap1\n      0x20\n      add\n      dup1\n      dup4\n      gt\n      tag_73\n      jumpi\n      dup3\n      swap1\n      sub\n      0x1f\n      and\n      dup3\n      add\n      swap2\n    tag_71:\n      pop\n      pop\n      pop\n      pop\n      pop\n      dup2\n      jump\t// out\n        /* \"Smart Contract Management - ETH + AVAX/contracts/Assessment.sol\":1218:1358  function addCandidate(string memory _candidate) public {... */\n    tag_32:\n        /* \"Smart Contract Management - ETH + AVAX/contracts/Assessment.sol\":1283:1293  candidates */\n      0x02\n        /* \"Smart Contract Management - ETH + AVAX/contracts/Assessment.sol\":1299:1309  _candidate */\n      dup2\n        /* \"Smart Contract Management - ETH + AVAX/contracts/Assessment.sol\":1283:1310  candidates.push(_candidate) */\n      swap1\n      dup1\n      0x01\n      dup2\n      sload\n      add\n      dup1\n      dup3\n      sstore\n      dup1\n      swap2\n      pop\n      pop\n      0x01\n      swap1\n      sub\n      swap1\n      0x00\n      mstore\n      keccak256(0x00, 0x20)\n      add\n      0x00\n      swap1\n      swap2\n      swap1\n      swap2\n      swap1\n      swap2\n      pop\n      swap1\n      dup2\n      tag_76\n      swap2\n      swap1\n      tag_77\n      jump\t// in\n    tag_76:\n      pop\n        /* \"Smart Contract Management - ETH + AVAX/contracts/Assessment.sol\":1325:1351  CandidateAdded(_candidate) */\n      0xf29562dad1599aea0ebb142466120aab326d5efa8f839df82a9c064bf78e8938\n        /* \"Smart Contract Management - ETH + AVAX/contracts/Assessment.sol\":1340:1350  _candidate */\n      dup2\n        /* \"Smart Contract Management - ETH + AVAX/contracts/Assessment.sol\":1325:1351  CandidateAdded(_candidate) */\n      mload(0x40)\n      tag_78\n      swap2\n      swap1\n      tag_27\n      jump\t// in\n    tag_78:\n      mload(0x40)\n      dup1\n      swap2\n      sub\n      swap1\n      log1\n        /* \"Smart Contract Management - ETH + AVAX/contracts/Assessment.sol\":1218:1358  function addCandidate(string memory _candidate) public {... */\n      pop\n      jump\t// out\n        /* \"Smart Contract Management - ETH + AVAX/contracts/Assessment.sol\":1676:1859  function getVotes(string memory _candidate) public view returns (uint256) {... */\n    tag_36:\n        /* \"Smart Contract Management - ETH + AVAX/contracts/Assessment.sol\":1741:1748  uint256 */\n      0x00\n        /* \"Smart Contract Management - ETH + AVAX/contracts/Assessment.sol\":1768:1796  isValidCandidate(_candidate) */\n      tag_80\n        /* \"Smart Contract Management - ETH + AVAX/contracts/Assessment.sol\":1785:1795  _candidate */\n      dup3\n        /* \"Smart Contract Management - ETH + AVAX/contracts/Assessment.sol\":1768:1784  isValidCandidate */\n      tag_81\n        /* \"Smart Contract Management - ETH + AVAX/contracts/Assessment.sol\":1768:1796  isValidCandidate(_candidate) */\n      jump\t// in\n    tag_80:\n        /* \"Smart Contract Management - ETH + AVAX/contracts/Assessment.sol\":1760:1818  require(isValidCandidate(_candidate), \"Invalid candidate\") */\n      tag_82\n      jumpi\n      mload(0x40)\n      0x08c379a000000000000000000000000000000000000000000000000000000000\n      dup2\n      mstore\n      0x04\n      add\n      tag_83\n      swap1\n      tag_84\n      jump\t// in\n    tag_83:\n      mload(0x40)\n      dup1\n      swap2\n      sub\n      swap1\n      revert\n    tag_82:\n        /* \"Smart Contract Management - ETH + AVAX/contracts/Assessment.sol\":1835:1840  votes */\n      0x03\n        /* \"Smart Contract Management - ETH + AVAX/contracts/Assessment.sol\":1841:1851  _candidate */\n      dup3\n        /* \"Smart Contract Management - ETH + AVAX/contracts/Assessment.sol\":1835:1852  votes[_candidate] */\n      mload(0x40)\n      tag_85\n      swap2\n      swap1\n      tag_86\n      jump\t// in\n    tag_85:\n      swap1\n      dup2\n      mstore\n      0x20\n      add\n      mload(0x40)\n      dup1\n      swap2\n      sub\n      swap1\n      keccak256\n      sload\n        /* \"Smart Contract Management - ETH + AVAX/contracts/Assessment.sol\":1828:1852  return votes[_candidate] */\n      swap1\n      pop\n        /* \"Smart Contract Management - ETH + AVAX/contracts/Assessment.sol\":1676:1859  function getVotes(string memory _candidate) public view returns (uint256) {... */\n      swap2\n      swap1\n      pop\n      jump\t// out\n        /* \"Smart Contract Management - ETH + AVAX/contracts/Assessment.sol\":90:118  address payable public owner */\n    tag_40:\n      0x00\n      dup1\n      sload\n      swap1\n      0x0100\n      exp\n      swap1\n      div\n      0xffffffffffffffffffffffffffffffffffffffff\n      and\n      dup2\n      jump\t// out\n        /* \"Smart Contract Management - ETH + AVAX/contracts/Assessment.sol\":124:146  uint256 public balance */\n    tag_45:\n      sload(0x01)\n      dup2\n      jump\t// out\n        /* \"Smart Contract Management - ETH + AVAX/contracts/Assessment.sol\":671:854  function deposit() public payable {... */\n    tag_48:\n        /* \"Smart Contract Management - ETH + AVAX/contracts/Assessment.sol\":737:742  owner */\n      0x00\n      dup1\n      sload\n      swap1\n      0x0100\n      exp\n      swap1\n      div\n      0xffffffffffffffffffffffffffffffffffffffff\n      and\n        /* \"Smart Contract Management - ETH + AVAX/contracts/Assessment.sol\":723:742  msg.sender == owner */\n      0xffffffffffffffffffffffffffffffffffffffff\n      and\n        /* \"Smart Contract Management - ETH + AVAX/contracts/Assessment.sol\":723:733  msg.sender */\n      caller\n        /* \"Smart Contract Management - ETH + AVAX/contracts/Assessment.sol\":723:742  msg.sender == owner */\n      0xffffffffffffffffffffffffffffffffffffffff\n      and\n      eq\n        /* \"Smart Contract Management - ETH + AVAX/contracts/Assessment.sol\":715:784  require(msg.sender == owner, \"You are not the owner of this account\") */\n      tag_88\n      jumpi\n      mload(0x40)\n      0x08c379a000000000000000000000000000000000000000000000000000000000\n      dup2\n      mstore\n      0x04\n      add\n      tag_89\n      swap1\n      tag_57\n      jump\t// in\n    tag_89:\n      mload(0x40)\n      dup1\n      swap2\n      sub\n      swap1\n      revert\n    tag_88:\n        /* \"Smart Contract Management - ETH + AVAX/contracts/Assessment.sol\":805:814  msg.value */\n      callvalue\n        /* \"Smart Contract Management - ETH + AVAX/contracts/Assessment.sol\":794:801  balance */\n      0x01\n      0x00\n        /* \"Smart Contract Management - ETH + AVAX/contracts/Assessment.sol\":794:814  balance += msg.value */\n      dup3\n      dup3\n      sload\n      tag_90\n      swap2\n      swap1\n      tag_91\n      jump\t// in\n    tag_90:\n      swap3\n      pop\n      pop\n      dup2\n      swap1\n      sstore\n      pop\n        /* \"Smart Contract Management - ETH + AVAX/contracts/Assessment.sol\":829:847  Deposit(msg.value) */\n      0x4d6ce1e535dbade1c23defba91e23b8f791ce5edc0cc320257a2b364e4e38426\n        /* \"Smart Contract Management - ETH + AVAX/contracts/Assessment.sol\":837:846  msg.value */\n      callvalue\n        /* \"Smart Contract Management - ETH + AVAX/contracts/Assessment.sol\":829:847  Deposit(msg.value) */\n      mload(0x40)\n      tag_92\n      swap2\n      swap1\n      tag_16\n      jump\t// in\n    tag_92:\n      mload(0x40)\n      dup1\n      swap2\n      sub\n      swap1\n      log1\n        /* \"Smart Contract Management - ETH + AVAX/contracts/Assessment.sol\":671:854  function deposit() public payable {... */\n      jump\t// out\n        /* \"Smart Contract Management - ETH + AVAX/contracts/Assessment.sol\":1364:1670  function vote(string memory _candidate) public {... */\n    tag_52:\n        /* \"Smart Contract Management - ETH + AVAX/contracts/Assessment.sol\":1430:1438  hasVoted */\n      0x04\n        /* \"Smart Contract Management - ETH + AVAX/contracts/Assessment.sol\":1430:1450  hasVoted[msg.sender] */\n      0x00\n        /* \"Smart Contract Management - ETH + AVAX/contracts/Assessment.sol\":1439:1449  msg.sender */\n      caller\n        /* \"Smart Contract Management - ETH + AVAX/contracts/Assessment.sol\":1430:1450  hasVoted[msg.sender] */\n      0xffffffffffffffffffffffffffffffffffffffff\n      and\n      0xffffffffffffffffffffffffffffffffffffffff\n      and\n      dup2\n      mstore\n      0x20\n      add\n      swap1\n      dup2\n      mstore\n      0x20\n      add\n      0x00\n      keccak256\n      0x00\n      swap1\n      sload\n      swap1\n      0x0100\n      exp\n      swap1\n      div\n      0xff\n      and\n        /* \"Smart Contract Management - ETH + AVAX/contracts/Assessment.sol\":1429:1450  !hasVoted[msg.sender] */\n      iszero\n        /* \"Smart Contract Management - ETH + AVAX/contracts/Assessment.sol\":1421:1477  require(!hasVoted[msg.sender], \"You have already voted\") */\n      tag_94\n      jumpi\n      mload(0x40)\n      0x08c379a000000000000000000000000000000000000000000000000000000000\n      dup2\n      mstore\n      0x04\n      add\n      tag_95\n      swap1\n      tag_96\n      jump\t// in\n    tag_95:\n      mload(0x40)\n      dup1\n      swap2\n      sub\n      swap1\n      revert\n    tag_94:\n        /* \"Smart Contract Management - ETH + AVAX/contracts/Assessment.sol\":1495:1523  isValidCandidate(_candidate) */\n      tag_97\n        /* \"Smart Contract Management - ETH + AVAX/contracts/Assessment.sol\":1512:1522  _candidate */\n      dup2\n        /* \"Smart Contract Management - ETH + AVAX/contracts/Assessment.sol\":1495:1511  isValidCandidate */\n      tag_81\n        /* \"Smart Contract Management - ETH + AVAX/contracts/Assessment.sol\":1495:1523  isValidCandidate(_candidate) */\n      jump\t// in\n    tag_97:\n        /* \"Smart Contract Management - ETH + AVAX/contracts/Assessment.sol\":1487:1545  require(isValidCandidate(_candidate), \"Invalid candidate\") */\n      tag_98\n      jumpi\n      mload(0x40)\n      0x08c379a000000000000000000000000000000000000000000000000000000000\n      dup2\n      mstore\n      0x04\n      add\n      tag_99\n      swap1\n      tag_84\n      jump\t// in\n    tag_99:\n      mload(0x40)\n      dup1\n      swap2\n      sub\n      swap1\n      revert\n    tag_98:\n        /* \"Smart Contract Management - ETH + AVAX/contracts/Assessment.sol\":1576:1577  1 */\n      0x01\n        /* \"Smart Contract Management - ETH + AVAX/contracts/Assessment.sol\":1555:1560  votes */\n      0x03\n        /* \"Smart Contract Management - ETH + AVAX/contracts/Assessment.sol\":1561:1571  _candidate */\n      dup3\n        /* \"Smart Contract Management - ETH + AVAX/contracts/Assessment.sol\":1555:1572  votes[_candidate] */\n      mload(0x40)\n      tag_100\n      swap2\n      swap1\n      tag_86\n      jump\t// in\n    tag_100:\n      swap1\n      dup2\n      mstore\n      0x20\n      add\n      mload(0x40)\n      dup1\n      swap2\n      sub\n      swap1\n      keccak256\n      0x00\n        /* \"Smart Contract Management - ETH + AVAX/contracts/Assessment.sol\":1555:1577  votes[_candidate] += 1 */\n      dup3\n      dup3\n      sload\n      tag_101\n      swap2\n      swap1\n      tag_91\n      jump\t// in\n    tag_101:\n      swap3\n      pop\n      pop\n      dup2\n      swap1\n      sstore\n      pop\n        /* \"Smart Contract Management - ETH + AVAX/contracts/Assessment.sol\":1610:1614  true */\n      0x01\n        /* \"Smart Contract Management - ETH + AVAX/contracts/Assessment.sol\":1587:1595  hasVoted */\n      0x04\n        /* \"Smart Contract Management - ETH + AVAX/contracts/Assessment.sol\":1587:1607  hasVoted[msg.sender] */\n      0x00\n        /* \"Smart Contract Management - ETH + AVAX/contracts/Assessment.sol\":1596:1606  msg.sender */\n      caller\n        /* \"Smart Contract Management - ETH + AVAX/contracts/Assessment.sol\":1587:1607  hasVoted[msg.sender] */\n      0xffffffffffffffffffffffffffffffffffffffff\n      and\n      0xffffffffffffffffffffffffffffffffffffffff\n      and\n      dup2\n      mstore\n      0x20\n      add\n      swap1\n      dup2\n      mstore\n      0x20\n      add\n      0x00\n      keccak256\n      0x00\n        /* \"Smart Contract Management - ETH + AVAX/contracts/Assessment.sol\":1587:1614  hasVoted[msg.sender] = true */\n      0x0100\n      exp\n      dup2\n      sload\n      dup2\n      0xff\n      mul\n      not\n      and\n      swap1\n      dup4\n      iszero\n      iszero\n      mul\n      or\n      swap1\n      sstore\n      pop\n        /* \"Smart Contract Management - ETH + AVAX/contracts/Assessment.sol\":1629:1663  VoteCasted(msg.sender, _candidate) */\n      0xb7821d50dfbda5ea310faebbeac5217bc1bb0cabe463e76b80e48d11e57df098\n        /* \"Smart Contract Management - ETH + AVAX/contracts/Assessment.sol\":1640:1650  msg.sender */\n      caller\n        /* \"Smart Contract Management - ETH + AVAX/contracts/Assessment.sol\":1652:1662  _candidate */\n      dup3\n        /* \"Smart Contract Management - ETH + AVAX/contracts/Assessment.sol\":1629:1663  VoteCasted(msg.sender, _candidate) */\n      mload(0x40)\n      tag_102\n      swap3\n      swap2\n      swap1\n      tag_103\n      jump\t// in\n    tag_102:\n      mload(0x40)\n      dup1\n      swap2\n      sub\n      swap1\n      log1\n        /* \"Smart Contract Management - ETH + AVAX/contracts/Assessment.sol\":1364:1670  function vote(string memory _candidate) public {... */\n      pop\n      jump\t// out\n        /* \"Smart Contract Management - ETH + AVAX/contracts/Assessment.sol\":1865:2188  function isValidCandidate(string memory _candidate) internal view returns (bool) {... */\n    tag_81:\n        /* \"Smart Contract Management - ETH + AVAX/contracts/Assessment.sol\":1940:1944  bool */\n      0x00\n        /* \"Smart Contract Management - ETH + AVAX/contracts/Assessment.sol\":1961:1967  uint i */\n      dup1\n        /* \"Smart Contract Management - ETH + AVAX/contracts/Assessment.sol\":1970:1971  0 */\n      0x00\n        /* \"Smart Contract Management - ETH + AVAX/contracts/Assessment.sol\":1961:1971  uint i = 0 */\n      swap1\n      pop\n        /* \"Smart Contract Management - ETH + AVAX/contracts/Assessment.sol\":1956:2160  for (uint i = 0; i < candidates.length; i++) {... */\n    tag_105:\n        /* \"Smart Contract Management - ETH + AVAX/contracts/Assessment.sol\":1977:1987  candidates */\n      0x02\n        /* \"Smart Contract Management - ETH + AVAX/contracts/Assessment.sol\":1977:1994  candidates.length */\n      dup1\n      sload\n      swap1\n      pop\n        /* \"Smart Contract Management - ETH + AVAX/contracts/Assessment.sol\":1973:1974  i */\n      dup2\n        /* \"Smart Contract Management - ETH + AVAX/contracts/Assessment.sol\":1973:1994  i < candidates.length */\n      lt\n        /* \"Smart Contract Management - ETH + AVAX/contracts/Assessment.sol\":1956:2160  for (uint i = 0; i < candidates.length; i++) {... */\n      iszero\n      tag_106\n      jumpi\n        /* \"Smart Contract Management - ETH + AVAX/contracts/Assessment.sol\":2092:2102  _candidate */\n      dup3\n        /* \"Smart Contract Management - ETH + AVAX/contracts/Assessment.sol\":2075:2103  abi.encodePacked(_candidate) */\n      add(0x20, mload(0x40))\n      tag_108\n      swap2\n      swap1\n      tag_86\n      jump\t// in\n    tag_108:\n      mload(0x40)\n      0x20\n      dup2\n      dup4\n      sub\n      sub\n      dup2\n      mstore\n      swap1\n      0x40\n      mstore\n        /* \"Smart Contract Management - ETH + AVAX/contracts/Assessment.sol\":2065:2104  keccak256(abi.encodePacked(_candidate)) */\n      dup1\n      mload\n      swap1\n      0x20\n      add\n      keccak256\n        /* \"Smart Contract Management - ETH + AVAX/contracts/Assessment.sol\":2046:2056  candidates */\n      0x02\n        /* \"Smart Contract Management - ETH + AVAX/contracts/Assessment.sol\":2057:2058  i */\n      dup3\n        /* \"Smart Contract Management - ETH + AVAX/contracts/Assessment.sol\":2046:2059  candidates[i] */\n      dup2\n      sload\n      dup2\n      lt\n      tag_109\n      jumpi\n      tag_110\n      tag_111\n      jump\t// in\n    tag_110:\n    tag_109:\n      swap1\n      0x00\n      mstore\n      keccak256(0x00, 0x20)\n      add\n        /* \"Smart Contract Management - ETH + AVAX/contracts/Assessment.sol\":2029:2060  abi.encodePacked(candidates[i]) */\n      add(0x20, mload(0x40))\n      tag_113\n      swap2\n      swap1\n      tag_114\n      jump\t// in\n    tag_113:\n      mload(0x40)\n      0x20\n      dup2\n      dup4\n      sub\n      sub\n      dup2\n      mstore\n      swap1\n      0x40\n      mstore\n        /* \"Smart Contract Management - ETH + AVAX/contracts/Assessment.sol\":2019:2061  keccak256(abi.encodePacked(candidates[i])) */\n      dup1\n      mload\n      swap1\n      0x20\n      add\n      keccak256\n        /* \"Smart Contract Management - ETH + AVAX/contracts/Assessment.sol\":2019:2104  keccak256(abi.encodePacked(candidates[i])) == keccak256(abi.encodePacked(_candidate)) */\n      sub\n        /* \"Smart Contract Management - ETH + AVAX/contracts/Assessment.sol\":2015:2150  if (keccak256(abi.encodePacked(candidates[i])) == keccak256(abi.encodePacked(_candidate))) {... */\n      tag_115\n      jumpi\n        /* \"Smart Contract Management - ETH + AVAX/contracts/Assessment.sol\":2131:2135  true */\n      0x01\n        /* \"Smart Contract Management - ETH + AVAX/contracts/Assessment.sol\":2124:2135  return true */\n      swap2\n      pop\n      pop\n      jump(tag_104)\n        /* \"Smart Contract Management - ETH + AVAX/contracts/Assessment.sol\":2015:2150  if (keccak256(abi.encodePacked(candidates[i])) == keccak256(abi.encodePacked(_candidate))) {... */\n    tag_115:\n        /* \"Smart Contract Management - ETH + AVAX/contracts/Assessment.sol\":1996:1999  i++ */\n      dup1\n      dup1\n      tag_116\n      swap1\n      tag_117\n      jump\t// in\n    tag_116:\n      swap2\n      pop\n      pop\n        /* \"Smart Contract Management - ETH + AVAX/contracts/Assessment.sol\":1956:2160  for (uint i = 0; i < candidates.length; i++) {... */\n      jump(tag_105)\n    tag_106:\n      pop\n        /* \"Smart Contract Management - ETH + AVAX/contracts/Assessment.sol\":2176:2181  false */\n      0x00\n        /* \"Smart Contract Management - ETH + AVAX/contracts/Assessment.sol\":2169:2181  return false */\n      swap1\n      pop\n        /* \"Smart Contract Management - ETH + AVAX/contracts/Assessment.sol\":1865:2188  function isValidCandidate(string memory _candidate) internal view returns (bool) {... */\n    tag_104:\n      swap2\n      swap1\n      pop\n      jump\t// out\n        /* \"#utility.yul\":7:84   */\n    tag_118:\n        /* \"#utility.yul\":44:51   */\n      0x00\n        /* \"#utility.yul\":73:78   */\n      dup2\n        /* \"#utility.yul\":62:78   */\n      swap1\n      pop\n        /* \"#utility.yul\":7:84   */\n      swap2\n      swap1\n      pop\n      jump\t// out\n        /* \"#utility.yul\":90:208   */\n    tag_119:\n        /* \"#utility.yul\":177:201   */\n      tag_175\n        /* \"#utility.yul\":195:200   */\n      dup2\n        /* \"#utility.yul\":177:201   */\n      tag_118\n      jump\t// in\n    tag_175:\n        /* \"#utility.yul\":172:175   */\n      dup3\n        /* \"#utility.yul\":165:202   */\n      mstore\n        /* \"#utility.yul\":90:208   */\n      pop\n      pop\n      jump\t// out\n        /* \"#utility.yul\":214:436   */\n    tag_16:\n        /* \"#utility.yul\":307:311   */\n      0x00\n        /* \"#utility.yul\":345:347   */\n      0x20\n        /* \"#utility.yul\":334:343   */\n      dup3\n        /* \"#utility.yul\":330:348   */\n      add\n        /* \"#utility.yul\":322:348   */\n      swap1\n      pop\n        /* \"#utility.yul\":358:429   */\n      tag_177\n        /* \"#utility.yul\":426:427   */\n      0x00\n        /* \"#utility.yul\":415:424   */\n      dup4\n        /* \"#utility.yul\":411:428   */\n      add\n        /* \"#utility.yul\":402:408   */\n      dup5\n        /* \"#utility.yul\":358:429   */\n      tag_119\n      jump\t// in\n    tag_177:\n        /* \"#utility.yul\":214:436   */\n      swap3\n      swap2\n      pop\n      pop\n      jump\t// out\n        /* \"#utility.yul\":442:517   */\n    tag_120:\n        /* \"#utility.yul\":475:481   */\n      0x00\n        /* \"#utility.yul\":508:510   */\n      0x40\n        /* \"#utility.yul\":502:511   */\n      mload\n        /* \"#utility.yul\":492:511   */\n      swap1\n      pop\n        /* \"#utility.yul\":442:517   */\n      swap1\n      jump\t// out\n        /* \"#utility.yul\":523:640   */\n    tag_121:\n        /* \"#utility.yul\":632:633   */\n      0x00\n        /* \"#utility.yul\":629:630   */\n      dup1\n        /* \"#utility.yul\":622:634   */\n      revert\n        /* \"#utility.yul\":646:763   */\n    tag_122:\n        /* \"#utility.yul\":755:756   */\n      0x00\n        /* \"#utility.yul\":752:753   */\n      dup1\n        /* \"#utility.yul\":745:757   */\n      revert\n        /* \"#utility.yul\":769:891   */\n    tag_123:\n        /* \"#utility.yul\":842:866   */\n      tag_182\n        /* \"#utility.yul\":860:865   */\n      dup2\n        /* \"#utility.yul\":842:866   */\n      tag_118\n      jump\t// in\n    tag_182:\n        /* \"#utility.yul\":835:840   */\n      dup2\n        /* \"#utility.yul\":832:867   */\n      eq\n        /* \"#utility.yul\":822:885   */\n      tag_183\n      jumpi\n        /* \"#utility.yul\":881:882   */\n      0x00\n        /* \"#utility.yul\":878:879   */\n      dup1\n        /* \"#utility.yul\":871:883   */\n      revert\n        /* \"#utility.yul\":822:885   */\n    tag_183:\n        /* \"#utility.yul\":769:891   */\n      pop\n      jump\t// out\n        /* \"#utility.yul\":897:1036   */\n    tag_124:\n        /* \"#utility.yul\":943:948   */\n      0x00\n        /* \"#utility.yul\":981:987   */\n      dup2\n        /* \"#utility.yul\":968:988   */\n      calldataload\n        /* \"#utility.yul\":959:988   */\n      swap1\n      pop\n        /* \"#utility.yul\":997:1030   */\n      tag_185\n        /* \"#utility.yul\":1024:1029   */\n      dup2\n        /* \"#utility.yul\":997:1030   */\n      tag_123\n      jump\t// in\n    tag_185:\n        /* \"#utility.yul\":897:1036   */\n      swap3\n      swap2\n      pop\n      pop\n      jump\t// out\n        /* \"#utility.yul\":1042:1371   */\n    tag_20:\n        /* \"#utility.yul\":1101:1107   */\n      0x00\n        /* \"#utility.yul\":1150:1152   */\n      0x20\n        /* \"#utility.yul\":1138:1147   */\n      dup3\n        /* \"#utility.yul\":1129:1136   */\n      dup5\n        /* \"#utility.yul\":1125:1148   */\n      sub\n        /* \"#utility.yul\":1121:1153   */\n      slt\n        /* \"#utility.yul\":1118:1237   */\n      iszero\n      tag_187\n      jumpi\n        /* \"#utility.yul\":1156:1235   */\n      tag_188\n      tag_121\n      jump\t// in\n    tag_188:\n        /* \"#utility.yul\":1118:1237   */\n    tag_187:\n        /* \"#utility.yul\":1276:1277   */\n      0x00\n        /* \"#utility.yul\":1301:1354   */\n      tag_189\n        /* \"#utility.yul\":1346:1353   */\n      dup5\n        /* \"#utility.yul\":1337:1343   */\n      dup3\n        /* \"#utility.yul\":1326:1335   */\n      dup6\n        /* \"#utility.yul\":1322:1344   */\n      add\n        /* \"#utility.yul\":1301:1354   */\n      tag_124\n      jump\t// in\n    tag_189:\n        /* \"#utility.yul\":1291:1354   */\n      swap2\n      pop\n        /* \"#utility.yul\":1247:1364   */\n      pop\n        /* \"#utility.yul\":1042:1371   */\n      swap3\n      swap2\n      pop\n      pop\n      jump\t// out\n        /* \"#utility.yul\":1377:1476   */\n    tag_125:\n        /* \"#utility.yul\":1429:1435   */\n      0x00\n        /* \"#utility.yul\":1463:1468   */\n      dup2\n        /* \"#utility.yul\":1457:1469   */\n      mload\n        /* \"#utility.yul\":1447:1469   */\n      swap1\n      pop\n        /* \"#utility.yul\":1377:1476   */\n      swap2\n      swap1\n      pop\n      jump\t// out\n        /* \"#utility.yul\":1482:1651   */\n    tag_126:\n        /* \"#utility.yul\":1566:1577   */\n      0x00\n        /* \"#utility.yul\":1600:1606   */\n      dup3\n        /* \"#utility.yul\":1595:1598   */\n      dup3\n        /* \"#utility.yul\":1588:1607   */\n      mstore\n        /* \"#utility.yul\":1640:1644   */\n      0x20\n        /* \"#utility.yul\":1635:1638   */\n      dup3\n        /* \"#utility.yul\":1631:1645   */\n      add\n        /* \"#utility.yul\":1616:1645   */\n      swap1\n      pop\n        /* \"#utility.yul\":1482:1651   */\n      swap3\n      swap2\n      pop\n      pop\n      jump\t// out\n        /* \"#utility.yul\":1657:1903   */\n    tag_127:\n        /* \"#utility.yul\":1738:1739   */\n      0x00\n        /* \"#utility.yul\":1748:1861   */\n    tag_193:\n        /* \"#utility.yul\":1762:1768   */\n      dup4\n        /* \"#utility.yul\":1759:1760   */\n      dup2\n        /* \"#utility.yul\":1756:1769   */\n      lt\n        /* \"#utility.yul\":1748:1861   */\n      iszero\n      tag_195\n      jumpi\n        /* \"#utility.yul\":1847:1848   */\n      dup1\n        /* \"#utility.yul\":1842:1845   */\n      dup3\n        /* \"#utility.yul\":1838:1849   */\n      add\n        /* \"#utility.yul\":1832:1850   */\n      mload\n        /* \"#utility.yul\":1828:1829   */\n      dup2\n        /* \"#utility.yul\":1823:1826   */\n      dup5\n        /* \"#utility.yul\":1819:1830   */\n      add\n        /* \"#utility.yul\":1812:1851   */\n      mstore\n        /* \"#utility.yul\":1784:1786   */\n      0x20\n        /* \"#utility.yul\":1781:1782   */\n      dup2\n        /* \"#utility.yul\":1777:1787   */\n      add\n        /* \"#utility.yul\":1772:1787   */\n      swap1\n      pop\n        /* \"#utility.yul\":1748:1861   */\n      jump(tag_193)\n    tag_195:\n        /* \"#utility.yul\":1895:1896   */\n      0x00\n        /* \"#utility.yul\":1886:1892   */\n      dup5\n        /* \"#utility.yul\":1881:1884   */\n      dup5\n        /* \"#utility.yul\":1877:1893   */\n      add\n        /* \"#utility.yul\":1870:1897   */\n      mstore\n        /* \"#utility.yul\":1719:1903   */\n      pop\n        /* \"#utility.yul\":1657:1903   */\n      pop\n      pop\n      pop\n      jump\t// out\n        /* \"#utility.yul\":1909:2011   */\n    tag_128:\n        /* \"#utility.yul\":1950:1956   */\n      0x00\n        /* \"#utility.yul\":2001:2003   */\n      0x1f\n        /* \"#utility.yul\":1997:2004   */\n      not\n        /* \"#utility.yul\":1992:1994   */\n      0x1f\n        /* \"#utility.yul\":1985:1990   */\n      dup4\n        /* \"#utility.yul\":1981:1995   */\n      add\n        /* \"#utility.yul\":1977:2005   */\n      and\n        /* \"#utility.yul\":1967:2005   */\n      swap1\n      pop\n        /* \"#utility.yul\":1909:2011   */\n      swap2\n      swap1\n      pop\n      jump\t// out\n        /* \"#utility.yul\":2017:2394   */\n    tag_129:\n        /* \"#utility.yul\":2105:2108   */\n      0x00\n        /* \"#utility.yul\":2133:2172   */\n      tag_198\n        /* \"#utility.yul\":2166:2171   */\n      dup3\n        /* \"#utility.yul\":2133:2172   */\n      tag_125\n      jump\t// in\n    tag_198:\n        /* \"#utility.yul\":2188:2259   */\n      tag_199\n        /* \"#utility.yul\":2252:2258   */\n      dup2\n        /* \"#utility.yul\":2247:2250   */\n      dup6\n        /* \"#utility.yul\":2188:2259   */\n      tag_126\n      jump\t// in\n    tag_199:\n        /* \"#utility.yul\":2181:2259   */\n      swap4\n      pop\n        /* \"#utility.yul\":2268:2333   */\n      tag_200\n        /* \"#utility.yul\":2326:2332   */\n      dup2\n        /* \"#utility.yul\":2321:2324   */\n      dup6\n        /* \"#utility.yul\":2314:2318   */\n      0x20\n        /* \"#utility.yul\":2307:2312   */\n      dup7\n        /* \"#utility.yul\":2303:2319   */\n      add\n        /* \"#utility.yul\":2268:2333   */\n      tag_127\n      jump\t// in\n    tag_200:\n        /* \"#utility.yul\":2358:2387   */\n      tag_201\n        /* \"#utility.yul\":2380:2386   */\n      dup2\n        /* \"#utility.yul\":2358:2387   */\n      tag_128\n      jump\t// in\n    tag_201:\n        /* \"#utility.yul\":2353:2356   */\n      dup5\n        /* \"#utility.yul\":2349:2388   */\n      add\n        /* \"#utility.yul\":2342:2388   */\n      swap2\n      pop\n        /* \"#utility.yul\":2109:2394   */\n      pop\n        /* \"#utility.yul\":2017:2394   */\n      swap3\n      swap2\n      pop\n      pop\n      jump\t// out\n        /* \"#utility.yul\":2400:2713   */\n    tag_27:\n        /* \"#utility.yul\":2513:2517   */\n      0x00\n        /* \"#utility.yul\":2551:2553   */\n      0x20\n        /* \"#utility.yul\":2540:2549   */\n      dup3\n        /* \"#utility.yul\":2536:2554   */\n      add\n        /* \"#utility.yul\":2528:2554   */\n      swap1\n      pop\n        /* \"#utility.yul\":2600:2609   */\n      dup2\n        /* \"#utility.yul\":2594:2598   */\n      dup2\n        /* \"#utility.yul\":2590:2610   */\n      sub\n        /* \"#utility.yul\":2586:2587   */\n      0x00\n        /* \"#utility.yul\":2575:2584   */\n      dup4\n        /* \"#utility.yul\":2571:2588   */\n      add\n        /* \"#utility.yul\":2564:2611   */\n      mstore\n        /* \"#utility.yul\":2628:2706   */\n      tag_203\n        /* \"#utility.yul\":2701:2705   */\n      dup2\n        /* \"#utility.yul\":2692:2698   */\n      dup5\n        /* \"#utility.yul\":2628:2706   */\n      tag_129\n      jump\t// in\n    tag_203:\n        /* \"#utility.yul\":2620:2706   */\n      swap1\n      pop\n        /* \"#utility.yul\":2400:2713   */\n      swap3\n      swap2\n      pop\n      pop\n      jump\t// out\n        /* \"#utility.yul\":2719:2836   */\n    tag_130:\n        /* \"#utility.yul\":2828:2829   */\n      0x00\n        /* \"#utility.yul\":2825:2826   */\n      dup1\n        /* \"#utility.yul\":2818:2830   */\n      revert\n        /* \"#utility.yul\":2842:2959   */\n    tag_131:\n        /* \"#utility.yul\":2951:2952   */\n      0x00\n        /* \"#utility.yul\":2948:2949   */\n      dup1\n        /* \"#utility.yul\":2941:2953   */\n      revert\n        /* \"#utility.yul\":2965:3145   */\n    tag_132:\n        /* \"#utility.yul\":3013:3090   */\n      0x4e487b7100000000000000000000000000000000000000000000000000000000\n        /* \"#utility.yul\":3010:3011   */\n      0x00\n        /* \"#utility.yul\":3003:3091   */\n      mstore\n        /* \"#utility.yul\":3110:3114   */\n      0x41\n        /* \"#utility.yul\":3107:3108   */\n      0x04\n        /* \"#utility.yul\":3100:3115   */\n      mstore\n        /* \"#utility.yul\":3134:3138   */\n      0x24\n        /* \"#utility.yul\":3131:3132   */\n      0x00\n        /* \"#utility.yul\":3124:3139   */\n      revert\n        /* \"#utility.yul\":3151:3432   */\n    tag_133:\n        /* \"#utility.yul\":3234:3261   */\n      tag_208\n        /* \"#utility.yul\":3256:3260   */\n      dup3\n        /* \"#utility.yul\":3234:3261   */\n      tag_128\n      jump\t// in\n    tag_208:\n        /* \"#utility.yul\":3226:3232   */\n      dup2\n        /* \"#utility.yul\":3222:3262   */\n      add\n        /* \"#utility.yul\":3364:3370   */\n      dup2\n        /* \"#utility.yul\":3352:3362   */\n      dup2\n        /* \"#utility.yul\":3349:3371   */\n      lt\n        /* \"#utility.yul\":3328:3346   */\n      0xffffffffffffffff\n        /* \"#utility.yul\":3316:3326   */\n      dup3\n        /* \"#utility.yul\":3313:3347   */\n      gt\n        /* \"#utility.yul\":3310:3372   */\n      or\n        /* \"#utility.yul\":3307:3395   */\n      iszero\n      tag_209\n      jumpi\n        /* \"#utility.yul\":3375:3393   */\n      tag_210\n      tag_132\n      jump\t// in\n    tag_210:\n        /* \"#utility.yul\":3307:3395   */\n    tag_209:\n        /* \"#utility.yul\":3415:3425   */\n      dup1\n        /* \"#utility.yul\":3411:3413   */\n      0x40\n        /* \"#utility.yul\":3404:3426   */\n      mstore\n        /* \"#utility.yul\":3194:3432   */\n      pop\n        /* \"#utility.yul\":3151:3432   */\n      pop\n      pop\n      jump\t// out\n        /* \"#utility.yul\":3438:3567   */\n    tag_134:\n        /* \"#utility.yul\":3472:3478   */\n      0x00\n        /* \"#utility.yul\":3499:3519   */\n      tag_212\n      tag_120\n      jump\t// in\n    tag_212:\n        /* \"#utility.yul\":3489:3519   */\n      swap1\n      pop\n        /* \"#utility.yul\":3528:3561   */\n      tag_213\n        /* \"#utility.yul\":3556:3560   */\n      dup3\n        /* \"#utility.yul\":3548:3554   */\n      dup3\n        /* \"#utility.yul\":3528:3561   */\n      tag_133\n      jump\t// in\n    tag_213:\n        /* \"#utility.yul\":3438:3567   */\n      swap2\n      swap1\n      pop\n      jump\t// out\n        /* \"#utility.yul\":3573:3881   */\n    tag_135:\n        /* \"#utility.yul\":3635:3639   */\n      0x00\n        /* \"#utility.yul\":3725:3743   */\n      0xffffffffffffffff\n        /* \"#utility.yul\":3717:3723   */\n      dup3\n        /* \"#utility.yul\":3714:3744   */\n      gt\n        /* \"#utility.yul\":3711:3767   */\n      iszero\n      tag_215\n      jumpi\n        /* \"#utility.yul\":3747:3765   */\n      tag_216\n      tag_132\n      jump\t// in\n    tag_216:\n        /* \"#utility.yul\":3711:3767   */\n    tag_215:\n        /* \"#utility.yul\":3785:3814   */\n      tag_217\n        /* \"#utility.yul\":3807:3813   */\n      dup3\n        /* \"#utility.yul\":3785:3814   */\n      tag_128\n      jump\t// in\n    tag_217:\n        /* \"#utility.yul\":3777:3814   */\n      swap1\n      pop\n        /* \"#utility.yul\":3869:3873   */\n      0x20\n        /* \"#utility.yul\":3863:3867   */\n      dup2\n        /* \"#utility.yul\":3859:3874   */\n      add\n        /* \"#utility.yul\":3851:3874   */\n      swap1\n      pop\n        /* \"#utility.yul\":3573:3881   */\n      swap2\n      swap1\n      pop\n      jump\t// out\n        /* \"#utility.yul\":3887:4033   */\n    tag_136:\n        /* \"#utility.yul\":3984:3990   */\n      dup3\n        /* \"#utility.yul\":3979:3982   */\n      dup2\n        /* \"#utility.yul\":3974:3977   */\n      dup4\n        /* \"#utility.yul\":3961:3991   */\n      calldatacopy\n        /* \"#utility.yul\":4025:4026   */\n      0x00\n        /* \"#utility.yul\":4016:4022   */\n      dup4\n        /* \"#utility.yul\":4011:4014   */\n      dup4\n        /* \"#utility.yul\":4007:4023   */\n      add\n        /* \"#utility.yul\":4000:4027   */\n      mstore\n        /* \"#utility.yul\":3887:4033   */\n      pop\n      pop\n      pop\n      jump\t// out\n        /* \"#utility.yul\":4039:4464   */\n    tag_137:\n        /* \"#utility.yul\":4117:4122   */\n      0x00\n        /* \"#utility.yul\":4142:4208   */\n      tag_220\n        /* \"#utility.yul\":4158:4207   */\n      tag_221\n        /* \"#utility.yul\":4200:4206   */\n      dup5\n        /* \"#utility.yul\":4158:4207   */\n      tag_135\n      jump\t// in\n    tag_221:\n        /* \"#utility.yul\":4142:4208   */\n      tag_134\n      jump\t// in\n    tag_220:\n        /* \"#utility.yul\":4133:4208   */\n      swap1\n      pop\n        /* \"#utility.yul\":4231:4237   */\n      dup3\n        /* \"#utility.yul\":4224:4229   */\n      dup2\n        /* \"#utility.yul\":4217:4238   */\n      mstore\n        /* \"#utility.yul\":4269:4273   */\n      0x20\n        /* \"#utility.yul\":4262:4267   */\n      dup2\n        /* \"#utility.yul\":4258:4274   */\n      add\n        /* \"#utility.yul\":4307:4310   */\n      dup5\n        /* \"#utility.yul\":4298:4304   */\n      dup5\n        /* \"#utility.yul\":4293:4296   */\n      dup5\n        /* \"#utility.yul\":4289:4305   */\n      add\n        /* \"#utility.yul\":4286:4311   */\n      gt\n        /* \"#utility.yul\":4283:4395   */\n      iszero\n      tag_222\n      jumpi\n        /* \"#utility.yul\":4314:4393   */\n      tag_223\n      tag_131\n      jump\t// in\n    tag_223:\n        /* \"#utility.yul\":4283:4395   */\n    tag_222:\n        /* \"#utility.yul\":4404:4458   */\n      tag_224\n        /* \"#utility.yul\":4451:4457   */\n      dup5\n        /* \"#utility.yul\":4446:4449   */\n      dup3\n        /* \"#utility.yul\":4441:4444   */\n      dup6\n        /* \"#utility.yul\":4404:4458   */\n      tag_136\n      jump\t// in\n    tag_224:\n        /* \"#utility.yul\":4123:4464   */\n      pop\n        /* \"#utility.yul\":4039:4464   */\n      swap4\n      swap3\n      pop\n      pop\n      pop\n      jump\t// out\n        /* \"#utility.yul\":4484:4824   */\n    tag_138:\n        /* \"#utility.yul\":4540:4545   */\n      0x00\n        /* \"#utility.yul\":4589:4592   */\n      dup3\n        /* \"#utility.yul\":4582:4586   */\n      0x1f\n        /* \"#utility.yul\":4574:4580   */\n      dup4\n        /* \"#utility.yul\":4570:4587   */\n      add\n        /* \"#utility.yul\":4566:4593   */\n      slt\n        /* \"#utility.yul\":4556:4678   */\n      tag_226\n      jumpi\n        /* \"#utility.yul\":4597:4676   */\n      tag_227\n      tag_130\n      jump\t// in\n    tag_227:\n        /* \"#utility.yul\":4556:4678   */\n    tag_226:\n        /* \"#utility.yul\":4714:4720   */\n      dup2\n        /* \"#utility.yul\":4701:4721   */\n      calldataload\n        /* \"#utility.yul\":4739:4818   */\n      tag_228\n        /* \"#utility.yul\":4814:4817   */\n      dup5\n        /* \"#utility.yul\":4806:4812   */\n      dup3\n        /* \"#utility.yul\":4799:4803   */\n      0x20\n        /* \"#utility.yul\":4791:4797   */\n      dup7\n        /* \"#utility.yul\":4787:4804   */\n      add\n        /* \"#utility.yul\":4739:4818   */\n      tag_137\n      jump\t// in\n    tag_228:\n        /* \"#utility.yul\":4730:4818   */\n      swap2\n      pop\n        /* \"#utility.yul\":4546:4824   */\n      pop\n        /* \"#utility.yul\":4484:4824   */\n      swap3\n      swap2\n      pop\n      pop\n      jump\t// out\n        /* \"#utility.yul\":4830:5339   */\n    tag_31:\n        /* \"#utility.yul\":4899:4905   */\n      0x00\n        /* \"#utility.yul\":4948:4950   */\n      0x20\n        /* \"#utility.yul\":4936:4945   */\n      dup3\n        /* \"#utility.yul\":4927:4934   */\n      dup5\n        /* \"#utility.yul\":4923:4946   */\n      sub\n        /* \"#utility.yul\":4919:4951   */\n      slt\n        /* \"#utility.yul\":4916:5035   */\n      iszero\n      tag_230\n      jumpi\n        /* \"#utility.yul\":4954:5033   */\n      tag_231\n      tag_121\n      jump\t// in\n    tag_231:\n        /* \"#utility.yul\":4916:5035   */\n    tag_230:\n        /* \"#utility.yul\":5102:5103   */\n      0x00\n        /* \"#utility.yul\":5091:5100   */\n      dup3\n        /* \"#utility.yul\":5087:5104   */\n      add\n        /* \"#utility.yul\":5074:5105   */\n      calldataload\n        /* \"#utility.yul\":5132:5150   */\n      0xffffffffffffffff\n        /* \"#utility.yul\":5124:5130   */\n      dup2\n        /* \"#utility.yul\":5121:5151   */\n      gt\n        /* \"#utility.yul\":5118:5235   */\n      iszero\n      tag_232\n      jumpi\n        /* \"#utility.yul\":5154:5233   */\n      tag_233\n      tag_122\n      jump\t// in\n    tag_233:\n        /* \"#utility.yul\":5118:5235   */\n    tag_232:\n        /* \"#utility.yul\":5259:5322   */\n      tag_234\n        /* \"#utility.yul\":5314:5321   */\n      dup5\n        /* \"#utility.yul\":5305:5311   */\n      dup3\n        /* \"#utility.yul\":5294:5303   */\n      dup6\n        /* \"#utility.yul\":5290:5312   */\n      add\n        /* \"#utility.yul\":5259:5322   */\n      tag_138\n      jump\t// in\n    tag_234:\n        /* \"#utility.yul\":5249:5322   */\n      swap2\n      pop\n        /* \"#utility.yul\":5045:5332   */\n      pop\n        /* \"#utility.yul\":4830:5339   */\n      swap3\n      swap2\n      pop\n      pop\n      jump\t// out\n        /* \"#utility.yul\":5345:5471   */\n    tag_139:\n        /* \"#utility.yul\":5382:5389   */\n      0x00\n        /* \"#utility.yul\":5422:5464   */\n      0xffffffffffffffffffffffffffffffffffffffff\n        /* \"#utility.yul\":5415:5420   */\n      dup3\n        /* \"#utility.yul\":5411:5465   */\n      and\n        /* \"#utility.yul\":5400:5465   */\n      swap1\n      pop\n        /* \"#utility.yul\":5345:5471   */\n      swap2\n      swap1\n      pop\n      jump\t// out\n        /* \"#utility.yul\":5477:5581   */\n    tag_140:\n        /* \"#utility.yul\":5522:5529   */\n      0x00\n        /* \"#utility.yul\":5551:5575   */\n      tag_237\n        /* \"#utility.yul\":5569:5574   */\n      dup3\n        /* \"#utility.yul\":5551:5575   */\n      tag_139\n      jump\t// in\n    tag_237:\n        /* \"#utility.yul\":5540:5575   */\n      swap1\n      pop\n        /* \"#utility.yul\":5477:5581   */\n      swap2\n      swap1\n      pop\n      jump\t// out\n        /* \"#utility.yul\":5587:5729   */\n    tag_141:\n        /* \"#utility.yul\":5690:5722   */\n      tag_239\n        /* \"#utility.yul\":5716:5721   */\n      dup2\n        /* \"#utility.yul\":5690:5722   */\n      tag_140\n      jump\t// in\n    tag_239:\n        /* \"#utility.yul\":5685:5688   */\n      dup3\n        /* \"#utility.yul\":5678:5723   */\n      mstore\n        /* \"#utility.yul\":5587:5729   */\n      pop\n      pop\n      jump\t// out\n        /* \"#utility.yul\":5735:5989   */\n    tag_42:\n        /* \"#utility.yul\":5844:5848   */\n      0x00\n        /* \"#utility.yul\":5882:5884   */\n      0x20\n        /* \"#utility.yul\":5871:5880   */\n      dup3\n        /* \"#utility.yul\":5867:5885   */\n      add\n        /* \"#utility.yul\":5859:5885   */\n      swap1\n      pop\n        /* \"#utility.yul\":5895:5982   */\n      tag_241\n        /* \"#utility.yul\":5979:5980   */\n      0x00\n        /* \"#utility.yul\":5968:5977   */\n      dup4\n        /* \"#utility.yul\":5964:5981   */\n      add\n        /* \"#utility.yul\":5955:5961   */\n      dup5\n        /* \"#utility.yul\":5895:5982   */\n      tag_141\n      jump\t// in\n    tag_241:\n        /* \"#utility.yul\":5735:5989   */\n      swap3\n      swap2\n      pop\n      pop\n      jump\t// out\n        /* \"#utility.yul\":5995:6219   */\n    tag_142:\n        /* \"#utility.yul\":6135:6169   */\n      0x596f7520617265206e6f7420746865206f776e6572206f662074686973206163\n        /* \"#utility.yul\":6131:6132   */\n      0x00\n        /* \"#utility.yul\":6123:6129   */\n      dup3\n        /* \"#utility.yul\":6119:6133   */\n      add\n        /* \"#utility.yul\":6112:6170   */\n      mstore\n        /* \"#utility.yul\":6204:6211   */\n      0x636f756e74000000000000000000000000000000000000000000000000000000\n        /* \"#utility.yul\":6199:6201   */\n      0x20\n        /* \"#utility.yul\":6191:6197   */\n      dup3\n        /* \"#utility.yul\":6187:6202   */\n      add\n        /* \"#utility.yul\":6180:6212   */\n      mstore\n        /* \"#utility.yul\":5995:6219   */\n      pop\n      jump\t// out\n        /* \"#utility.yul\":6225:6591   */\n    tag_143:\n        /* \"#utility.yul\":6367:6370   */\n      0x00\n        /* \"#utility.yul\":6388:6455   */\n      tag_244\n        /* \"#utility.yul\":6452:6454   */\n      0x25\n        /* \"#utility.yul\":6447:6450   */\n      dup4\n        /* \"#utility.yul\":6388:6455   */\n      tag_126\n      jump\t// in\n    tag_244:\n        /* \"#utility.yul\":6381:6455   */\n      swap2\n      pop\n        /* \"#utility.yul\":6464:6557   */\n      tag_245\n        /* \"#utility.yul\":6553:6556   */\n      dup3\n        /* \"#utility.yul\":6464:6557   */\n      tag_142\n      jump\t// in\n    tag_245:\n        /* \"#utility.yul\":6582:6584   */\n      0x40\n        /* \"#utility.yul\":6577:6580   */\n      dup3\n        /* \"#utility.yul\":6573:6585   */\n      add\n        /* \"#utility.yul\":6566:6585   */\n      swap1\n      pop\n        /* \"#utility.yul\":6225:6591   */\n      swap2\n      swap1\n      pop\n      jump\t// out\n        /* \"#utility.yul\":6597:7016   */\n    tag_57:\n        /* \"#utility.yul\":6763:6767   */\n      0x00\n        /* \"#utility.yul\":6801:6803   */\n      0x20\n        /* \"#utility.yul\":6790:6799   */\n      dup3\n        /* \"#utility.yul\":6786:6804   */\n      add\n        /* \"#utility.yul\":6778:6804   */\n      swap1\n      pop\n        /* \"#utility.yul\":6850:6859   */\n      dup2\n        /* \"#utility.yul\":6844:6848   */\n      dup2\n        /* \"#utility.yul\":6840:6860   */\n      sub\n        /* \"#utility.yul\":6836:6837   */\n      0x00\n        /* \"#utility.yul\":6825:6834   */\n      dup4\n        /* \"#utility.yul\":6821:6838   */\n      add\n        /* \"#utility.yul\":6814:6861   */\n      mstore\n        /* \"#utility.yul\":6878:7009   */\n      tag_247\n        /* \"#utility.yul\":7004:7008   */\n      dup2\n        /* \"#utility.yul\":6878:7009   */\n      tag_143\n      jump\t// in\n    tag_247:\n        /* \"#utility.yul\":6870:7009   */\n      swap1\n      pop\n        /* \"#utility.yul\":6597:7016   */\n      swap2\n      swap1\n      pop\n      jump\t// out\n        /* \"#utility.yul\":7022:7192   */\n    tag_144:\n        /* \"#utility.yul\":7162:7184   */\n      0x496e73756666696369656e742062616c616e6365000000000000000000000000\n        /* \"#utility.yul\":7158:7159   */\n      0x00\n        /* \"#utility.yul\":7150:7156   */\n      dup3\n        /* \"#utility.yul\":7146:7160   */\n      add\n        /* \"#utility.yul\":7139:7185   */\n      mstore\n        /* \"#utility.yul\":7022:7192   */\n      pop\n      jump\t// out\n        /* \"#utility.yul\":7198:7564   */\n    tag_145:\n        /* \"#utility.yul\":7340:7343   */\n      0x00\n        /* \"#utility.yul\":7361:7428   */\n      tag_250\n        /* \"#utility.yul\":7425:7427   */\n      0x14\n        /* \"#utility.yul\":7420:7423   */\n      dup4\n        /* \"#utility.yul\":7361:7428   */\n      tag_126\n      jump\t// in\n    tag_250:\n        /* \"#utility.yul\":7354:7428   */\n      swap2\n      pop\n        /* \"#utility.yul\":7437:7530   */\n      tag_251\n        /* \"#utility.yul\":7526:7529   */\n      dup3\n        /* \"#utility.yul\":7437:7530   */\n      tag_144\n      jump\t// in\n    tag_251:\n        /* \"#utility.yul\":7555:7557   */\n      0x20\n        /* \"#utility.yul\":7550:7553   */\n      dup3\n        /* \"#utility.yul\":7546:7558   */\n      add\n        /* \"#utility.yul\":7539:7558   */\n      swap1\n      pop\n        /* \"#utility.yul\":7198:7564   */\n      swap2\n      swap1\n      pop\n      jump\t// out\n        /* \"#utility.yul\":7570:7989   */\n    tag_60:\n        /* \"#utility.yul\":7736:7740   */\n      0x00\n        /* \"#utility.yul\":7774:7776   */\n      0x20\n        /* \"#utility.yul\":7763:7772   */\n      dup3\n        /* \"#utility.yul\":7759:7777   */\n      add\n        /* \"#utility.yul\":7751:7777   */\n      swap1\n      pop\n        /* \"#utility.yul\":7823:7832   */\n      dup2\n        /* \"#utility.yul\":7817:7821   */\n      dup2\n        /* \"#utility.yul\":7813:7833   */\n      sub\n        /* \"#utility.yul\":7809:7810   */\n      0x00\n        /* \"#utility.yul\":7798:7807   */\n      dup4\n        /* \"#utility.yul\":7794:7811   */\n      add\n        /* \"#utility.yul\":7787:7834   */\n      mstore\n        /* \"#utility.yul\":7851:7982   */\n      tag_253\n        /* \"#utility.yul\":7977:7981   */\n      dup2\n        /* \"#utility.yul\":7851:7982   */\n      tag_145\n      jump\t// in\n    tag_253:\n        /* \"#utility.yul\":7843:7982   */\n      swap1\n      pop\n        /* \"#utility.yul\":7570:7989   */\n      swap2\n      swap1\n      pop\n      jump\t// out\n        /* \"#utility.yul\":7995:8175   */\n    tag_146:\n        /* \"#utility.yul\":8043:8120   */\n      0x4e487b7100000000000000000000000000000000000000000000000000000000\n        /* \"#utility.yul\":8040:8041   */\n      0x00\n        /* \"#utility.yul\":8033:8121   */\n      mstore\n        /* \"#utility.yul\":8140:8144   */\n      0x11\n        /* \"#utility.yul\":8137:8138   */\n      0x04\n        /* \"#utility.yul\":8130:8145   */\n      mstore\n        /* \"#utility.yul\":8164:8168   */\n      0x24\n        /* \"#utility.yul\":8161:8162   */\n      0x00\n        /* \"#utility.yul\":8154:8169   */\n      revert\n        /* \"#utility.yul\":8181:8375   */\n    tag_62:\n        /* \"#utility.yul\":8221:8225   */\n      0x00\n        /* \"#utility.yul\":8241:8261   */\n      tag_256\n        /* \"#utility.yul\":8259:8260   */\n      dup3\n        /* \"#utility.yul\":8241:8261   */\n      tag_118\n      jump\t// in\n    tag_256:\n        /* \"#utility.yul\":8236:8261   */\n      swap2\n      pop\n        /* \"#utility.yul\":8275:8295   */\n      tag_257\n        /* \"#utility.yul\":8293:8294   */\n      dup4\n        /* \"#utility.yul\":8275:8295   */\n      tag_118\n      jump\t// in\n    tag_257:\n        /* \"#utility.yul\":8270:8295   */\n      swap3\n      pop\n        /* \"#utility.yul\":8319:8320   */\n      dup3\n        /* \"#utility.yul\":8316:8317   */\n      dup3\n        /* \"#utility.yul\":8312:8321   */\n      sub\n        /* \"#utility.yul\":8304:8321   */\n      swap1\n      pop\n        /* \"#utility.yul\":8343:8344   */\n      dup2\n        /* \"#utility.yul\":8337:8341   */\n      dup2\n        /* \"#utility.yul\":8334:8345   */\n      gt\n        /* \"#utility.yul\":8331:8368   */\n      iszero\n      tag_258\n      jumpi\n        /* \"#utility.yul\":8348:8366   */\n      tag_259\n      tag_146\n      jump\t// in\n    tag_259:\n        /* \"#utility.yul\":8331:8368   */\n    tag_258:\n        /* \"#utility.yul\":8181:8375   */\n      swap3\n      swap2\n      pop\n      pop\n      jump\t// out\n        /* \"#utility.yul\":8381:8561   */\n    tag_147:\n        /* \"#utility.yul\":8429:8506   */\n      0x4e487b7100000000000000000000000000000000000000000000000000000000\n        /* \"#utility.yul\":8426:8427   */\n      0x00\n        /* \"#utility.yul\":8419:8507   */\n      mstore\n        /* \"#utility.yul\":8526:8530   */\n      0x22\n        /* \"#utility.yul\":8523:8524   */\n      0x04\n        /* \"#utility.yul\":8516:8531   */\n      mstore\n        /* \"#utility.yul\":8550:8554   */\n      0x24\n        /* \"#utility.yul\":8547:8548   */\n      0x00\n        /* \"#utility.yul\":8540:8555   */\n      revert\n        /* \"#utility.yul\":8567:8887   */\n    tag_69:\n        /* \"#utility.yul\":8611:8617   */\n      0x00\n        /* \"#utility.yul\":8648:8649   */\n      0x02\n        /* \"#utility.yul\":8642:8646   */\n      dup3\n        /* \"#utility.yul\":8638:8650   */\n      div\n        /* \"#utility.yul\":8628:8650   */\n      swap1\n      pop\n        /* \"#utility.yul\":8695:8696   */\n      0x01\n        /* \"#utility.yul\":8689:8693   */\n      dup3\n        /* \"#utility.yul\":8685:8697   */\n      and\n        /* \"#utility.yul\":8716:8734   */\n      dup1\n        /* \"#utility.yul\":8706:8787   */\n      tag_262\n      jumpi\n        /* \"#utility.yul\":8772:8776   */\n      0x7f\n        /* \"#utility.yul\":8764:8770   */\n      dup3\n        /* \"#utility.yul\":8760:8777   */\n      and\n        /* \"#utility.yul\":8750:8777   */\n      swap2\n      pop\n        /* \"#utility.yul\":8706:8787   */\n    tag_262:\n        /* \"#utility.yul\":8834:8836   */\n      0x20\n        /* \"#utility.yul\":8826:8832   */\n      dup3\n        /* \"#utility.yul\":8823:8837   */\n      lt\n        /* \"#utility.yul\":8803:8821   */\n      dup2\n        /* \"#utility.yul\":8800:8838   */\n      sub\n        /* \"#utility.yul\":8797:8881   */\n      tag_263\n      jumpi\n        /* \"#utility.yul\":8853:8871   */\n      tag_264\n      tag_147\n      jump\t// in\n    tag_264:\n        /* \"#utility.yul\":8797:8881   */\n    tag_263:\n        /* \"#utility.yul\":8618:8887   */\n      pop\n        /* \"#utility.yul\":8567:8887   */\n      swap2\n      swap1\n      pop\n      jump\t// out\n        /* \"#utility.yul\":8893:9034   */\n    tag_148:\n        /* \"#utility.yul\":8942:8946   */\n      0x00\n        /* \"#utility.yul\":8965:8968   */\n      dup2\n        /* \"#utility.yul\":8957:8968   */\n      swap1\n      pop\n        /* \"#utility.yul\":8988:8991   */\n      dup2\n        /* \"#utility.yul\":8985:8986   */\n      0x00\n        /* \"#utility.yul\":8978:8992   */\n      mstore\n        /* \"#utility.yul\":9022:9026   */\n      0x20\n        /* \"#utility.yul\":9019:9020   */\n      0x00\n        /* \"#utility.yul\":9009:9027   */\n      keccak256\n        /* \"#utility.yul\":9001:9027   */\n      swap1\n      pop\n        /* \"#utility.yul\":8893:9034   */\n      swap2\n      swap1\n      pop\n      jump\t// out\n        /* \"#utility.yul\":9040:9133   */\n    tag_149:\n        /* \"#utility.yul\":9077:9083   */\n      0x00\n        /* \"#utility.yul\":9124:9126   */\n      0x20\n        /* \"#utility.yul\":9119:9121   */\n      0x1f\n        /* \"#utility.yul\":9112:9117   */\n      dup4\n        /* \"#utility.yul\":9108:9122   */\n      add\n        /* \"#utility.yul\":9104:9127   */\n      div\n        /* \"#utility.yul\":9094:9127   */\n      swap1\n      pop\n        /* \"#utility.yul\":9040:9133   */\n      swap2\n      swap1\n      pop\n      jump\t// out\n        /* \"#utility.yul\":9139:9246   */\n    tag_150:\n        /* \"#utility.yul\":9183:9191   */\n      0x00\n        /* \"#utility.yul\":9233:9238   */\n      dup3\n        /* \"#utility.yul\":9227:9231   */\n      dup3\n        /* \"#utility.yul\":9223:9239   */\n      shl\n        /* \"#utility.yul\":9202:9239   */\n      swap1\n      pop\n        /* \"#utility.yul\":9139:9246   */\n      swap3\n      swap2\n      pop\n      pop\n      jump\t// out\n        /* \"#utility.yul\":9252:9645   */\n    tag_151:\n        /* \"#utility.yul\":9321:9327   */\n      0x00\n        /* \"#utility.yul\":9371:9372   */\n      0x08\n        /* \"#utility.yul\":9359:9369   */\n      dup4\n        /* \"#utility.yul\":9355:9373   */\n      mul\n        /* \"#utility.yul\":9394:9491   */\n      tag_269\n        /* \"#utility.yul\":9424:9490   */\n      0xffffffffffffffffffffffffffffffffffffffffffffffffffffffffffffffff\n        /* \"#utility.yul\":9413:9422   */\n      dup3\n        /* \"#utility.yul\":9394:9491   */\n      tag_150\n      jump\t// in\n    tag_269:\n        /* \"#utility.yul\":9512:9551   */\n      tag_270\n        /* \"#utility.yul\":9542:9550   */\n      dup7\n        /* \"#utility.yul\":9531:9540   */\n      dup4\n        /* \"#utility.yul\":9512:9551   */\n      tag_150\n      jump\t// in\n    tag_270:\n        /* \"#utility.yul\":9500:9551   */\n      swap6\n      pop\n        /* \"#utility.yul\":9584:9588   */\n      dup1\n        /* \"#utility.yul\":9580:9589   */\n      not\n        /* \"#utility.yul\":9573:9578   */\n      dup5\n        /* \"#utility.yul\":9569:9590   */\n      and\n        /* \"#utility.yul\":9560:9590   */\n      swap4\n      pop\n        /* \"#utility.yul\":9633:9637   */\n      dup1\n        /* \"#utility.yul\":9623:9631   */\n      dup7\n        /* \"#utility.yul\":9619:9638   */\n      and\n        /* \"#utility.yul\":9612:9617   */\n      dup5\n        /* \"#utility.yul\":9609:9639   */\n      or\n        /* \"#utility.yul\":9599:9639   */\n      swap3\n      pop\n        /* \"#utility.yul\":9328:9645   */\n      pop\n      pop\n        /* \"#utility.yul\":9252:9645   */\n      swap4\n      swap3\n      pop\n      pop\n      pop\n      jump\t// out\n        /* \"#utility.yul\":9651:9711   */\n    tag_152:\n        /* \"#utility.yul\":9679:9682   */\n      0x00\n        /* \"#utility.yul\":9700:9705   */\n      dup2\n        /* \"#utility.yul\":9693:9705   */\n      swap1\n      pop\n        /* \"#utility.yul\":9651:9711   */\n      swap2\n      swap1\n      pop\n      jump\t// out\n        /* \"#utility.yul\":9717:9859   */\n    tag_153:\n        /* \"#utility.yul\":9767:9776   */\n      0x00\n        /* \"#utility.yul\":9800:9853   */\n      tag_273\n        /* \"#utility.yul\":9818:9852   */\n      tag_274\n        /* \"#utility.yul\":9827:9851   */\n      tag_275\n        /* \"#utility.yul\":9845:9850   */\n      dup5\n        /* \"#utility.yul\":9827:9851   */\n      tag_118\n      jump\t// in\n    tag_275:\n        /* \"#utility.yul\":9818:9852   */\n      tag_152\n      jump\t// in\n    tag_274:\n        /* \"#utility.yul\":9800:9853   */\n      tag_118\n      jump\t// in\n    tag_273:\n        /* \"#utility.yul\":9787:9853   */\n      swap1\n      pop\n        /* \"#utility.yul\":9717:9859   */\n      swap2\n      swap1\n      pop\n      jump\t// out\n        /* \"#utility.yul\":9865:9940   */\n    tag_154:\n        /* \"#utility.yul\":9908:9911   */\n      0x00\n        /* \"#utility.yul\":9929:9934   */\n      dup2\n        /* \"#utility.yul\":9922:9934   */\n      swap1\n      pop\n        /* \"#utility.yul\":9865:9940   */\n      swap2\n      swap1\n      pop\n      jump\t// out\n        /* \"#utility.yul\":9946:10215   */\n    tag_155:\n        /* \"#utility.yul\":10056:10095   */\n      tag_278\n        /* \"#utility.yul\":10087:10094   */\n      dup4\n        /* \"#utility.yul\":10056:10095   */\n      tag_153\n      jump\t// in\n    tag_278:\n        /* \"#utility.yul\":10117:10208   */\n      tag_279\n        /* \"#utility.yul\":10166:10207   */\n      tag_280\n        /* \"#utility.yul\":10190:10206   */\n      dup3\n        /* \"#utility.yul\":10166:10207   */\n      tag_154\n      jump\t// in\n    tag_280:\n        /* \"#utility.yul\":10158:10164   */\n      dup5\n        /* \"#utility.yul\":10151:10155   */\n      dup5\n        /* \"#utility.yul\":10145:10156   */\n      sload\n        /* \"#utility.yul\":10117:10208   */\n      tag_151\n      jump\t// in\n    tag_279:\n        /* \"#utility.yul\":10111:10115   */\n      dup3\n        /* \"#utility.yul\":10104:10209   */\n      sstore\n        /* \"#utility.yul\":10022:10215   */\n      pop\n        /* \"#utility.yul\":9946:10215   */\n      pop\n      pop\n      pop\n      jump\t// out\n        /* \"#utility.yul\":10221:10294   */\n    tag_156:\n        /* \"#utility.yul\":10266:10269   */\n      0x00\n        /* \"#utility.yul\":10221:10294   */\n      swap1\n      jump\t// out\n        /* \"#utility.yul\":10300:10489   */\n    tag_157:\n        /* \"#utility.yul\":10377:10409   */\n      tag_283\n      tag_156\n      jump\t// in\n    tag_283:\n        /* \"#utility.yul\":10418:10483   */\n      tag_284\n        /* \"#utility.yul\":10476:10482   */\n      dup2\n        /* \"#utility.yul\":10468:10474   */\n      dup5\n        /* \"#utility.yul\":10462:10466   */\n      dup5\n        /* \"#utility.yul\":10418:10483   */\n      tag_155\n      jump\t// in\n    tag_284:\n        /* \"#utility.yul\":10353:10489   */\n      pop\n        /* \"#utility.yul\":10300:10489   */\n      pop\n      pop\n      jump\t// out\n        /* \"#utility.yul\":10495:10681   */\n    tag_158:\n        /* \"#utility.yul\":10555:10675   */\n    tag_286:\n        /* \"#utility.yul\":10572:10575   */\n      dup2\n        /* \"#utility.yul\":10565:10570   */\n      dup2\n        /* \"#utility.yul\":10562:10576   */\n      lt\n        /* \"#utility.yul\":10555:10675   */\n      iszero\n      tag_288\n      jumpi\n        /* \"#utility.yul\":10626:10665   */\n      tag_289\n        /* \"#utility.yul\":10663:10664   */\n      0x00\n        /* \"#utility.yul\":10656:10661   */\n      dup3\n        /* \"#utility.yul\":10626:10665   */\n      tag_157\n      jump\t// in\n    tag_289:\n        /* \"#utility.yul\":10599:10600   */\n      0x01\n        /* \"#utility.yul\":10592:10597   */\n      dup2\n        /* \"#utility.yul\":10588:10601   */\n      add\n        /* \"#utility.yul\":10579:10601   */\n      swap1\n      pop\n        /* \"#utility.yul\":10555:10675   */\n      jump(tag_286)\n    tag_288:\n        /* \"#utility.yul\":10495:10681   */\n      pop\n      pop\n      jump\t// out\n        /* \"#utility.yul\":10687:11230   */\n    tag_159:\n        /* \"#utility.yul\":10788:10790   */\n      0x1f\n        /* \"#utility.yul\":10783:10786   */\n      dup3\n        /* \"#utility.yul\":10780:10791   */\n      gt\n        /* \"#utility.yul\":10777:11223   */\n      iszero\n      tag_291\n      jumpi\n        /* \"#utility.yul\":10822:10860   */\n      tag_292\n        /* \"#utility.yul\":10854:10859   */\n      dup2\n        /* \"#utility.yul\":10822:10860   */\n      tag_148\n      jump\t// in\n    tag_292:\n        /* \"#utility.yul\":10906:10935   */\n      tag_293\n        /* \"#utility.yul\":10924:10934   */\n      dup5\n        /* \"#utility.yul\":10906:10935   */\n      tag_149\n      jump\t// in\n    tag_293:\n        /* \"#utility.yul\":10896:10904   */\n      dup2\n        /* \"#utility.yul\":10892:10936   */\n      add\n        /* \"#utility.yul\":11089:11091   */\n      0x20\n        /* \"#utility.yul\":11077:11087   */\n      dup6\n        /* \"#utility.yul\":11074:11092   */\n      lt\n        /* \"#utility.yul\":11071:11120   */\n      iszero\n      tag_294\n      jumpi\n        /* \"#utility.yul\":11110:11118   */\n      dup2\n        /* \"#utility.yul\":11095:11118   */\n      swap1\n      pop\n        /* \"#utility.yul\":11071:11120   */\n    tag_294:\n        /* \"#utility.yul\":11133:11213   */\n      tag_295\n        /* \"#utility.yul\":11189:11211   */\n      tag_296\n        /* \"#utility.yul\":11207:11210   */\n      dup6\n        /* \"#utility.yul\":11189:11211   */\n      tag_149\n      jump\t// in\n    tag_296:\n        /* \"#utility.yul\":11179:11187   */\n      dup4\n        /* \"#utility.yul\":11175:11212   */\n      add\n        /* \"#utility.yul\":11162:11173   */\n      dup3\n        /* \"#utility.yul\":11133:11213   */\n      tag_158\n      jump\t// in\n    tag_295:\n        /* \"#utility.yul\":10792:11223   */\n      pop\n      pop\n        /* \"#utility.yul\":10777:11223   */\n    tag_291:\n        /* \"#utility.yul\":10687:11230   */\n      pop\n      pop\n      pop\n      jump\t// out\n        /* \"#utility.yul\":11236:11353   */\n    tag_160:\n        /* \"#utility.yul\":11290:11298   */\n      0x00\n        /* \"#utility.yul\":11340:11345   */\n      dup3\n        /* \"#utility.yul\":11334:11338   */\n      dup3\n        /* \"#utility.yul\":11330:11346   */\n      shr\n        /* \"#utility.yul\":11309:11346   */\n      swap1\n      pop\n        /* \"#utility.yul\":11236:11353   */\n      swap3\n      swap2\n      pop\n      pop\n      jump\t// out\n        /* \"#utility.yul\":11359:11528   */\n    tag_161:\n        /* \"#utility.yul\":11403:11409   */\n      0x00\n        /* \"#utility.yul\":11436:11487   */\n      tag_299\n        /* \"#utility.yul\":11484:11485   */\n      0x00\n        /* \"#utility.yul\":11480:11486   */\n      not\n        /* \"#utility.yul\":11472:11477   */\n      dup5\n        /* \"#utility.yul\":11469:11470   */\n      0x08\n        /* \"#utility.yul\":11465:11478   */\n      mul\n        /* \"#utility.yul\":11436:11487   */\n      tag_160\n      jump\t// in\n    tag_299:\n        /* \"#utility.yul\":11432:11488   */\n      not\n        /* \"#utility.yul\":11517:11521   */\n      dup1\n        /* \"#utility.yul\":11511:11515   */\n      dup4\n        /* \"#utility.yul\":11507:11522   */\n      and\n        /* \"#utility.yul\":11497:11522   */\n      swap2\n      pop\n        /* \"#utility.yul\":11410:11528   */\n      pop\n        /* \"#utility.yul\":11359:11528   */\n      swap3\n      swap2\n      pop\n      pop\n      jump\t// out\n        /* \"#utility.yul\":11533:11828   */\n    tag_162:\n        /* \"#utility.yul\":11609:11613   */\n      0x00\n        /* \"#utility.yul\":11755:11784   */\n      tag_301\n        /* \"#utility.yul\":11780:11783   */\n      dup4\n        /* \"#utility.yul\":11774:11778   */\n      dup4\n        /* \"#utility.yul\":11755:11784   */\n      tag_161\n      jump\t// in\n    tag_301:\n        /* \"#utility.yul\":11747:11784   */\n      swap2\n      pop\n        /* \"#utility.yul\":11817:11820   */\n      dup3\n        /* \"#utility.yul\":11814:11815   */\n      0x02\n        /* \"#utility.yul\":11810:11821   */\n      mul\n        /* \"#utility.yul\":11804:11808   */\n      dup3\n        /* \"#utility.yul\":11801:11822   */\n      or\n        /* \"#utility.yul\":11793:11822   */\n      swap1\n      pop\n        /* \"#utility.yul\":11533:11828   */\n      swap3\n      swap2\n      pop\n      pop\n      jump\t// out\n        /* \"#utility.yul\":11833:13228   */\n    tag_77:\n        /* \"#utility.yul\":11950:11987   */\n      tag_303\n        /* \"#utility.yul\":11983:11986   */\n      dup3\n        /* \"#utility.yul\":11950:11987   */\n      tag_125\n      jump\t// in\n    tag_303:\n        /* \"#utility.yul\":12052:12070   */\n      0xffffffffffffffff\n        /* \"#utility.yul\":12044:12050   */\n      dup2\n        /* \"#utility.yul\":12041:12071   */\n      gt\n        /* \"#utility.yul\":12038:12094   */\n      iszero\n      tag_304\n      jumpi\n        /* \"#utility.yul\":12074:12092   */\n      tag_305\n      tag_132\n      jump\t// in\n    tag_305:\n        /* \"#utility.yul\":12038:12094   */\n    tag_304:\n        /* \"#utility.yul\":12118:12156   */\n      tag_306\n        /* \"#utility.yul\":12150:12154   */\n      dup3\n        /* \"#utility.yul\":12144:12155   */\n      sload\n        /* \"#utility.yul\":12118:12156   */\n      tag_69\n      jump\t// in\n    tag_306:\n        /* \"#utility.yul\":12203:12270   */\n      tag_307\n        /* \"#utility.yul\":12263:12269   */\n      dup3\n        /* \"#utility.yul\":12255:12261   */\n      dup3\n        /* \"#utility.yul\":12249:12253   */\n      dup6\n        /* \"#utility.yul\":12203:12270   */\n      tag_159\n      jump\t// in\n    tag_307:\n        /* \"#utility.yul\":12297:12298   */\n      0x00\n        /* \"#utility.yul\":12321:12325   */\n      0x20\n        /* \"#utility.yul\":12308:12325   */\n      swap1\n      pop\n        /* \"#utility.yul\":12353:12355   */\n      0x1f\n        /* \"#utility.yul\":12345:12351   */\n      dup4\n        /* \"#utility.yul\":12342:12356   */\n      gt\n        /* \"#utility.yul\":12370:12371   */\n      0x01\n        /* \"#utility.yul\":12365:12983   */\n      dup2\n      eq\n      tag_309\n      jumpi\n        /* \"#utility.yul\":13027:13028   */\n      0x00\n        /* \"#utility.yul\":13044:13050   */\n      dup5\n        /* \"#utility.yul\":13041:13118   */\n      iszero\n      tag_310\n      jumpi\n        /* \"#utility.yul\":13093:13102   */\n      dup3\n        /* \"#utility.yul\":13088:13091   */\n      dup8\n        /* \"#utility.yul\":13084:13103   */\n      add\n        /* \"#utility.yul\":13078:13104   */\n      mload\n        /* \"#utility.yul\":13069:13104   */\n      swap1\n      pop\n        /* \"#utility.yul\":13041:13118   */\n    tag_310:\n        /* \"#utility.yul\":13144:13211   */\n      tag_311\n        /* \"#utility.yul\":13204:13210   */\n      dup6\n        /* \"#utility.yul\":13197:13202   */\n      dup3\n        /* \"#utility.yul\":13144:13211   */\n      tag_162\n      jump\t// in\n    tag_311:\n        /* \"#utility.yul\":13138:13142   */\n      dup7\n        /* \"#utility.yul\":13131:13212   */\n      sstore\n        /* \"#utility.yul\":13000:13222   */\n      pop\n        /* \"#utility.yul\":12335:13222   */\n      jump(tag_308)\n        /* \"#utility.yul\":12365:12983   */\n    tag_309:\n        /* \"#utility.yul\":12417:12421   */\n      0x1f\n        /* \"#utility.yul\":12413:12422   */\n      not\n        /* \"#utility.yul\":12405:12411   */\n      dup5\n        /* \"#utility.yul\":12401:12423   */\n      and\n        /* \"#utility.yul\":12451:12488   */\n      tag_312\n        /* \"#utility.yul\":12483:12487   */\n      dup7\n        /* \"#utility.yul\":12451:12488   */\n      tag_148\n      jump\t// in\n    tag_312:\n        /* \"#utility.yul\":12510:12511   */\n      0x00\n        /* \"#utility.yul\":12524:12732   */\n    tag_313:\n        /* \"#utility.yul\":12538:12545   */\n      dup3\n        /* \"#utility.yul\":12535:12536   */\n      dup2\n        /* \"#utility.yul\":12532:12546   */\n      lt\n        /* \"#utility.yul\":12524:12732   */\n      iszero\n      tag_315\n      jumpi\n        /* \"#utility.yul\":12617:12626   */\n      dup5\n        /* \"#utility.yul\":12612:12615   */\n      dup10\n        /* \"#utility.yul\":12608:12627   */\n      add\n        /* \"#utility.yul\":12602:12628   */\n      mload\n        /* \"#utility.yul\":12594:12600   */\n      dup3\n        /* \"#utility.yul\":12587:12629   */\n      sstore\n        /* \"#utility.yul\":12668:12669   */\n      0x01\n        /* \"#utility.yul\":12660:12666   */\n      dup3\n        /* \"#utility.yul\":12656:12670   */\n      add\n        /* \"#utility.yul\":12646:12670   */\n      swap2\n      pop\n        /* \"#utility.yul\":12715:12717   */\n      0x20\n        /* \"#utility.yul\":12704:12713   */\n      dup6\n        /* \"#utility.yul\":12700:12718   */\n      add\n        /* \"#utility.yul\":12687:12718   */\n      swap5\n      pop\n        /* \"#utility.yul\":12561:12565   */\n      0x20\n        /* \"#utility.yul\":12558:12559   */\n      dup2\n        /* \"#utility.yul\":12554:12566   */\n      add\n        /* \"#utility.yul\":12549:12566   */\n      swap1\n      pop\n        /* \"#utility.yul\":12524:12732   */\n      jump(tag_313)\n    tag_315:\n        /* \"#utility.yul\":12760:12766   */\n      dup7\n        /* \"#utility.yul\":12751:12758   */\n      dup4\n        /* \"#utility.yul\":12748:12767   */\n      lt\n        /* \"#utility.yul\":12745:12924   */\n      iszero\n      tag_316\n      jumpi\n        /* \"#utility.yul\":12818:12827   */\n      dup5\n        /* \"#utility.yul\":12813:12816   */\n      dup10\n        /* \"#utility.yul\":12809:12828   */\n      add\n        /* \"#utility.yul\":12803:12829   */\n      mload\n        /* \"#utility.yul\":12861:12909   */\n      tag_317\n        /* \"#utility.yul\":12903:12907   */\n      0x1f\n        /* \"#utility.yul\":12895:12901   */\n      dup10\n        /* \"#utility.yul\":12891:12908   */\n      and\n        /* \"#utility.yul\":12880:12889   */\n      dup3\n        /* \"#utility.yul\":12861:12909   */\n      tag_161\n      jump\t// in\n    tag_317:\n        /* \"#utility.yul\":12853:12859   */\n      dup4\n        /* \"#utility.yul\":12846:12910   */\n      sstore\n        /* \"#utility.yul\":12768:12924   */\n      pop\n        /* \"#utility.yul\":12745:12924   */\n    tag_316:\n        /* \"#utility.yul\":12970:12971   */\n      0x01\n        /* \"#utility.yul\":12966:12967   */\n      0x02\n        /* \"#utility.yul\":12958:12964   */\n      dup9\n        /* \"#utility.yul\":12954:12968   */\n      mul\n        /* \"#utility.yul\":12950:12972   */\n      add\n        /* \"#utility.yul\":12944:12948   */\n      dup9\n        /* \"#utility.yul\":12937:12973   */\n      sstore\n        /* \"#utility.yul\":12372:12983   */\n      pop\n      pop\n      pop\n        /* \"#utility.yul\":12335:13222   */\n    tag_308:\n      pop\n        /* \"#utility.yul\":11925:13228   */\n      pop\n      pop\n      pop\n        /* \"#utility.yul\":11833:13228   */\n      pop\n      pop\n      jump\t// out\n        /* \"#utility.yul\":13234:13401   */\n    tag_163:\n        /* \"#utility.yul\":13374:13393   */\n      0x496e76616c69642063616e646964617465000000000000000000000000000000\n        /* \"#utility.yul\":13370:13371   */\n      0x00\n        /* \"#utility.yul\":13362:13368   */\n      dup3\n        /* \"#utility.yul\":13358:13372   */\n      add\n        /* \"#utility.yul\":13351:13394   */\n      mstore\n        /* \"#utility.yul\":13234:13401   */\n      pop\n      jump\t// out\n        /* \"#utility.yul\":13407:13773   */\n    tag_164:\n        /* \"#utility.yul\":13549:13552   */\n      0x00\n        /* \"#utility.yul\":13570:13637   */\n      tag_320\n        /* \"#utility.yul\":13634:13636   */\n      0x11\n        /* \"#utility.yul\":13629:13632   */\n      dup4\n        /* \"#utility.yul\":13570:13637   */\n      tag_126\n      jump\t// in\n    tag_320:\n        /* \"#utility.yul\":13563:13637   */\n      swap2\n      pop\n        /* \"#utility.yul\":13646:13739   */\n      tag_321\n        /* \"#utility.yul\":13735:13738   */\n      dup3\n        /* \"#utility.yul\":13646:13739   */\n      tag_163\n      jump\t// in\n    tag_321:\n        /* \"#utility.yul\":13764:13766   */\n      0x20\n        /* \"#utility.yul\":13759:13762   */\n      dup3\n        /* \"#utility.yul\":13755:13767   */\n      add\n        /* \"#utility.yul\":13748:13767   */\n      swap1\n      pop\n        /* \"#utility.yul\":13407:13773   */\n      swap2\n      swap1\n      pop\n      jump\t// out\n        /* \"#utility.yul\":13779:14198   */\n    tag_84:\n        /* \"#utility.yul\":13945:13949   */\n      0x00\n        /* \"#utility.yul\":13983:13985   */\n      0x20\n        /* \"#utility.yul\":13972:13981   */\n      dup3\n        /* \"#utility.yul\":13968:13986   */\n      add\n        /* \"#utility.yul\":13960:13986   */\n      swap1\n      pop\n        /* \"#utility.yul\":14032:14041   */\n      dup2\n        /* \"#utility.yul\":14026:14030   */\n      dup2\n        /* \"#utility.yul\":14022:14042   */\n      sub\n        /* \"#utility.yul\":14018:14019   */\n      0x00\n        /* \"#utility.yul\":14007:14016   */\n      dup4\n        /* \"#utility.yul\":14003:14020   */\n      add\n        /* \"#utility.yul\":13996:14043   */\n      mstore\n        /* \"#utility.yul\":14060:14191   */\n      tag_323\n        /* \"#utility.yul\":14186:14190   */\n      dup2\n        /* \"#utility.yul\":14060:14191   */\n      tag_164\n      jump\t// in\n    tag_323:\n        /* \"#utility.yul\":14052:14191   */\n      swap1\n      pop\n        /* \"#utility.yul\":13779:14198   */\n      swap2\n      swap1\n      pop\n      jump\t// out\n        /* \"#utility.yul\":14204:14352   */\n    tag_165:\n        /* \"#utility.yul\":14306:14317   */\n      0x00\n        /* \"#utility.yul\":14343:14346   */\n      dup2\n        /* \"#utility.yul\":14328:14346   */\n      swap1\n      pop\n        /* \"#utility.yul\":14204:14352   */\n      swap3\n      swap2\n      pop\n      pop\n      jump\t// out\n        /* \"#utility.yul\":14358:14748   */\n    tag_166:\n        /* \"#utility.yul\":14464:14467   */\n      0x00\n        /* \"#utility.yul\":14492:14531   */\n      tag_326\n        /* \"#utility.yul\":14525:14530   */\n      dup3\n        /* \"#utility.yul\":14492:14531   */\n      tag_125\n      jump\t// in\n    tag_326:\n        /* \"#utility.yul\":14547:14636   */\n      tag_327\n        /* \"#utility.yul\":14629:14635   */\n      dup2\n        /* \"#utility.yul\":14624:14627   */\n      dup6\n        /* \"#utility.yul\":14547:14636   */\n      tag_165\n      jump\t// in\n    tag_327:\n        /* \"#utility.yul\":14540:14636   */\n      swap4\n      pop\n        /* \"#utility.yul\":14645:14710   */\n      tag_328\n        /* \"#utility.yul\":14703:14709   */\n      dup2\n        /* \"#utility.yul\":14698:14701   */\n      dup6\n        /* \"#utility.yul\":14691:14695   */\n      0x20\n        /* \"#utility.yul\":14684:14689   */\n      dup7\n        /* \"#utility.yul\":14680:14696   */\n      add\n        /* \"#utility.yul\":14645:14710   */\n      tag_127\n      jump\t// in\n    tag_328:\n        /* \"#utility.yul\":14735:14741   */\n      dup1\n        /* \"#utility.yul\":14730:14733   */\n      dup5\n        /* \"#utility.yul\":14726:14742   */\n      add\n        /* \"#utility.yul\":14719:14742   */\n      swap2\n      pop\n        /* \"#utility.yul\":14468:14748   */\n      pop\n        /* \"#utility.yul\":14358:14748   */\n      swap3\n      swap2\n      pop\n      pop\n      jump\t// out\n        /* \"#utility.yul\":14754:15029   */\n    tag_86:\n        /* \"#utility.yul\":14886:14889   */\n      0x00\n        /* \"#utility.yul\":14908:15003   */\n      tag_330\n        /* \"#utility.yul\":14999:15002   */\n      dup3\n        /* \"#utility.yul\":14990:14996   */\n      dup5\n        /* \"#utility.yul\":14908:15003   */\n      tag_166\n      jump\t// in\n    tag_330:\n        /* \"#utility.yul\":14901:15003   */\n      swap2\n      pop\n        /* \"#utility.yul\":15020:15023   */\n      dup2\n        /* \"#utility.yul\":15013:15023   */\n      swap1\n      pop\n        /* \"#utility.yul\":14754:15029   */\n      swap3\n      swap2\n      pop\n      pop\n      jump\t// out\n        /* \"#utility.yul\":15035:15226   */\n    tag_91:\n        /* \"#utility.yul\":15075:15078   */\n      0x00\n        /* \"#utility.yul\":15094:15114   */\n      tag_332\n        /* \"#utility.yul\":15112:15113   */\n      dup3\n        /* \"#utility.yul\":15094:15114   */\n      tag_118\n      jump\t// in\n    tag_332:\n        /* \"#utility.yul\":15089:15114   */\n      swap2\n      pop\n        /* \"#utility.yul\":15128:15148   */\n      tag_333\n        /* \"#utility.yul\":15146:15147   */\n      dup4\n        /* \"#utility.yul\":15128:15148   */\n      tag_118\n      jump\t// in\n    tag_333:\n        /* \"#utility.yul\":15123:15148   */\n      swap3\n      pop\n        /* \"#utility.yul\":15171:15172   */\n      dup3\n        /* \"#utility.yul\":15168:15169   */\n      dup3\n        /* \"#utility.yul\":15164:15173   */\n      add\n        /* \"#utility.yul\":15157:15173   */\n      swap1\n      pop\n        /* \"#utility.yul\":15192:15195   */\n      dup1\n        /* \"#utility.yul\":15189:15190   */\n      dup3\n        /* \"#utility.yul\":15186:15196   */\n      gt\n        /* \"#utility.yul\":15183:15219   */\n      iszero\n      tag_334\n      jumpi\n        /* \"#utility.yul\":15199:15217   */\n      tag_335\n      tag_146\n      jump\t// in\n    tag_335:\n        /* \"#utility.yul\":15183:15219   */\n    tag_334:\n        /* \"#utility.yul\":15035:15226   */\n      swap3\n      swap2\n      pop\n      pop\n      jump\t// out\n        /* \"#utility.yul\":15232:15404   */\n    tag_167:\n        /* \"#utility.yul\":15372:15396   */\n      0x596f75206861766520616c726561647920766f74656400000000000000000000\n        /* \"#utility.yul\":15368:15369   */\n      0x00\n        /* \"#utility.yul\":15360:15366   */\n      dup3\n        /* \"#utility.yul\":15356:15370   */\n      add\n        /* \"#utility.yul\":15349:15397   */\n      mstore\n        /* \"#utility.yul\":15232:15404   */\n      pop\n      jump\t// out\n        /* \"#utility.yul\":15410:15776   */\n    tag_168:\n        /* \"#utility.yul\":15552:15555   */\n      0x00\n        /* \"#utility.yul\":15573:15640   */\n      tag_338\n        /* \"#utility.yul\":15637:15639   */\n      0x16\n        /* \"#utility.yul\":15632:15635   */\n      dup4\n        /* \"#utility.yul\":15573:15640   */\n      tag_126\n      jump\t// in\n    tag_338:\n        /* \"#utility.yul\":15566:15640   */\n      swap2\n      pop\n        /* \"#utility.yul\":15649:15742   */\n      tag_339\n        /* \"#utility.yul\":15738:15741   */\n      dup3\n        /* \"#utility.yul\":15649:15742   */\n      tag_167\n      jump\t// in\n    tag_339:\n        /* \"#utility.yul\":15767:15769   */\n      0x20\n        /* \"#utility.yul\":15762:15765   */\n      dup3\n        /* \"#utility.yul\":15758:15770   */\n      add\n        /* \"#utility.yul\":15751:15770   */\n      swap1\n      pop\n        /* \"#utility.yul\":15410:15776   */\n      swap2\n      swap1\n      pop\n      jump\t// out\n        /* \"#utility.yul\":15782:16201   */\n    tag_96:\n        /* \"#utility.yul\":15948:15952   */\n      0x00\n        /* \"#utility.yul\":15986:15988   */\n      0x20\n        /* \"#utility.yul\":15975:15984   */\n      dup3\n        /* \"#utility.yul\":15971:15989   */\n      add\n        /* \"#utility.yul\":15963:15989   */\n      swap1\n      pop\n        /* \"#utility.yul\":16035:16044   */\n      dup2\n        /* \"#utility.yul\":16029:16033   */\n      dup2\n        /* \"#utility.yul\":16025:16045   */\n      sub\n        /* \"#utility.yul\":16021:16022   */\n      0x00\n        /* \"#utility.yul\":16010:16019   */\n      dup4\n        /* \"#utility.yul\":16006:16023   */\n      add\n        /* \"#utility.yul\":15999:16046   */\n      mstore\n        /* \"#utility.yul\":16063:16194   */\n      tag_341\n        /* \"#utility.yul\":16189:16193   */\n      dup2\n        /* \"#utility.yul\":16063:16194   */\n      tag_168\n      jump\t// in\n    tag_341:\n        /* \"#utility.yul\":16055:16194   */\n      swap1\n      pop\n        /* \"#utility.yul\":15782:16201   */\n      swap2\n      swap1\n      pop\n      jump\t// out\n        /* \"#utility.yul\":16207:16303   */\n    tag_169:\n        /* \"#utility.yul\":16244:16251   */\n      0x00\n        /* \"#utility.yul\":16273:16297   */\n      tag_343\n        /* \"#utility.yul\":16291:16296   */\n      dup3\n        /* \"#utility.yul\":16273:16297   */\n      tag_139\n      jump\t// in\n    tag_343:\n        /* \"#utility.yul\":16262:16297   */\n      swap1\n      pop\n        /* \"#utility.yul\":16207:16303   */\n      swap2\n      swap1\n      pop\n      jump\t// out\n        /* \"#utility.yul\":16309:16427   */\n    tag_170:\n        /* \"#utility.yul\":16396:16420   */\n      tag_345\n        /* \"#utility.yul\":16414:16419   */\n      dup2\n        /* \"#utility.yul\":16396:16420   */\n      tag_169\n      jump\t// in\n    tag_345:\n        /* \"#utility.yul\":16391:16394   */\n      dup3\n        /* \"#utility.yul\":16384:16421   */\n      mstore\n        /* \"#utility.yul\":16309:16427   */\n      pop\n      pop\n      jump\t// out\n        /* \"#utility.yul\":16433:16856   */\n    tag_103:\n        /* \"#utility.yul\":16574:16578   */\n      0x00\n        /* \"#utility.yul\":16612:16614   */\n      0x40\n        /* \"#utility.yul\":16601:16610   */\n      dup3\n        /* \"#utility.yul\":16597:16615   */\n      add\n        /* \"#utility.yul\":16589:16615   */\n      swap1\n      pop\n        /* \"#utility.yul\":16625:16696   */\n      tag_347\n        /* \"#utility.yul\":16693:16694   */\n      0x00\n        /* \"#utility.yul\":16682:16691   */\n      dup4\n        /* \"#utility.yul\":16678:16695   */\n      add\n        /* \"#utility.yul\":16669:16675   */\n      dup6\n        /* \"#utility.yul\":16625:16696   */\n      tag_170\n      jump\t// in\n    tag_347:\n        /* \"#utility.yul\":16743:16752   */\n      dup2\n        /* \"#utility.yul\":16737:16741   */\n      dup2\n        /* \"#utility.yul\":16733:16753   */\n      sub\n        /* \"#utility.yul\":16728:16730   */\n      0x20\n        /* \"#utility.yul\":16717:16726   */\n      dup4\n        /* \"#utility.yul\":16713:16731   */\n      add\n        /* \"#utility.yul\":16706:16754   */\n      mstore\n        /* \"#utility.yul\":16771:16849   */\n      tag_348\n        /* \"#utility.yul\":16844:16848   */\n      dup2\n        /* \"#utility.yul\":16835:16841   */\n      dup5\n        /* \"#utility.yul\":16771:16849   */\n      tag_129\n      jump\t// in\n    tag_348:\n        /* \"#utility.yul\":16763:16849   */\n      swap1\n      pop\n        /* \"#utility.yul\":16433:16856   */\n      swap4\n      swap3\n      pop\n      pop\n      pop\n      jump\t// out\n        /* \"#utility.yul\":16862:17042   */\n    tag_111:\n        /* \"#utility.yul\":16910:16987   */\n      0x4e487b7100000000000000000000000000000000000000000000000000000000\n        /* \"#utility.yul\":16907:16908   */\n      0x00\n        /* \"#utility.yul\":16900:16988   */\n      mstore\n        /* \"#utility.yul\":17007:17011   */\n      0x32\n        /* \"#utility.yul\":17004:17005   */\n      0x04\n        /* \"#utility.yul\":16997:17012   */\n      mstore\n        /* \"#utility.yul\":17031:17035   */\n      0x24\n        /* \"#utility.yul\":17028:17029   */\n      0x00\n        /* \"#utility.yul\":17021:17036   */\n      revert\n        /* \"#utility.yul\":17072:17946   */\n    tag_171:\n        /* \"#utility.yul\":17175:17178   */\n      0x00\n        /* \"#utility.yul\":17212:17217   */\n      dup2\n        /* \"#utility.yul\":17206:17218   */\n      sload\n        /* \"#utility.yul\":17241:17277   */\n      tag_351\n        /* \"#utility.yul\":17267:17276   */\n      dup2\n        /* \"#utility.yul\":17241:17277   */\n      tag_69\n      jump\t// in\n    tag_351:\n        /* \"#utility.yul\":17293:17382   */\n      tag_352\n        /* \"#utility.yul\":17375:17381   */\n      dup2\n        /* \"#utility.yul\":17370:17373   */\n      dup7\n        /* \"#utility.yul\":17293:17382   */\n      tag_165\n      jump\t// in\n    tag_352:\n        /* \"#utility.yul\":17286:17382   */\n      swap5\n      pop\n        /* \"#utility.yul\":17413:17414   */\n      0x01\n        /* \"#utility.yul\":17402:17411   */\n      dup3\n        /* \"#utility.yul\":17398:17415   */\n      and\n        /* \"#utility.yul\":17429:17430   */\n      0x00\n        /* \"#utility.yul\":17424:17590   */\n      dup2\n      eq\n      tag_354\n      jumpi\n        /* \"#utility.yul\":17604:17605   */\n      0x01\n        /* \"#utility.yul\":17599:17940   */\n      dup2\n      eq\n      tag_355\n      jumpi\n        /* \"#utility.yul\":17391:17940   */\n      jump(tag_353)\n        /* \"#utility.yul\":17424:17590   */\n    tag_354:\n        /* \"#utility.yul\":17508:17512   */\n      0xff\n        /* \"#utility.yul\":17504:17513   */\n      not\n        /* \"#utility.yul\":17493:17502   */\n      dup4\n        /* \"#utility.yul\":17489:17514   */\n      and\n        /* \"#utility.yul\":17484:17487   */\n      dup7\n        /* \"#utility.yul\":17477:17515   */\n      mstore\n        /* \"#utility.yul\":17570:17576   */\n      dup2\n        /* \"#utility.yul\":17563:17577   */\n      iszero\n        /* \"#utility.yul\":17556:17578   */\n      iszero\n        /* \"#utility.yul\":17548:17554   */\n      dup3\n        /* \"#utility.yul\":17544:17579   */\n      mul\n        /* \"#utility.yul\":17539:17542   */\n      dup7\n        /* \"#utility.yul\":17535:17580   */\n      add\n        /* \"#utility.yul\":17528:17580   */\n      swap4\n      pop\n        /* \"#utility.yul\":17424:17590   */\n      jump(tag_353)\n        /* \"#utility.yul\":17599:17940   */\n    tag_355:\n        /* \"#utility.yul\":17666:17704   */\n      tag_356\n        /* \"#utility.yul\":17698:17703   */\n      dup6\n        /* \"#utility.yul\":17666:17704   */\n      tag_148\n      jump\t// in\n    tag_356:\n        /* \"#utility.yul\":17726:17727   */\n      0x00\n        /* \"#utility.yul\":17740:17894   */\n    tag_357:\n        /* \"#utility.yul\":17754:17760   */\n      dup4\n        /* \"#utility.yul\":17751:17752   */\n      dup2\n        /* \"#utility.yul\":17748:17761   */\n      lt\n        /* \"#utility.yul\":17740:17894   */\n      iszero\n      tag_359\n      jumpi\n        /* \"#utility.yul\":17828:17835   */\n      dup2\n        /* \"#utility.yul\":17822:17836   */\n      sload\n        /* \"#utility.yul\":17818:17819   */\n      dup2\n        /* \"#utility.yul\":17813:17816   */\n      dup10\n        /* \"#utility.yul\":17809:17820   */\n      add\n        /* \"#utility.yul\":17802:17837   */\n      mstore\n        /* \"#utility.yul\":17878:17879   */\n      0x01\n        /* \"#utility.yul\":17869:17876   */\n      dup3\n        /* \"#utility.yul\":17865:17880   */\n      add\n        /* \"#utility.yul\":17854:17880   */\n      swap2\n      pop\n        /* \"#utility.yul\":17776:17780   */\n      0x20\n        /* \"#utility.yul\":17773:17774   */\n      dup2\n        /* \"#utility.yul\":17769:17781   */\n      add\n        /* \"#utility.yul\":17764:17781   */\n      swap1\n      pop\n        /* \"#utility.yul\":17740:17894   */\n      jump(tag_357)\n    tag_359:\n        /* \"#utility.yul\":17923:17929   */\n      dup4\n        /* \"#utility.yul\":17918:17921   */\n      dup9\n        /* \"#utility.yul\":17914:17930   */\n      add\n        /* \"#utility.yul\":17907:17930   */\n      swap6\n      pop\n        /* \"#utility.yul\":17606:17940   */\n      pop\n      pop\n        /* \"#utility.yul\":17391:17940   */\n    tag_353:\n      pop\n        /* \"#utility.yul\":17179:17946   */\n      pop\n      pop\n        /* \"#utility.yul\":17072:17946   */\n      swap3\n      swap2\n      pop\n      pop\n      jump\t// out\n        /* \"#utility.yul\":17952:18221   */\n    tag_114:\n        /* \"#utility.yul\":18081:18084   */\n      0x00\n        /* \"#utility.yul\":18103:18195   */\n      tag_361\n        /* \"#utility.yul\":18191:18194   */\n      dup3\n        /* \"#utility.yul\":18182:18188   */\n      dup5\n        /* \"#utility.yul\":18103:18195   */\n      tag_171\n      jump\t// in\n    tag_361:\n        /* \"#utility.yul\":18096:18195   */\n      swap2\n      pop\n        /* \"#utility.yul\":18212:18215   */\n      dup2\n        /* \"#utility.yul\":18205:18215   */\n      swap1\n      pop\n        /* \"#utility.yul\":17952:18221   */\n      swap3\n      swap2\n      pop\n      pop\n      jump\t// out\n        /* \"#utility.yul\":18227:18460   */\n    tag_117:\n        /* \"#utility.yul\":18266:18269   */\n      0x00\n        /* \"#utility.yul\":18289:18313   */\n      tag_363\n        /* \"#utility.yul\":18307:18312   */\n      dup3\n        /* \"#utility.yul\":18289:18313   */\n      tag_118\n      jump\t// in\n    tag_363:\n        /* \"#utility.yul\":18280:18313   */\n      swap2\n      pop\n        /* \"#utility.yul\":18335:18401   */\n      0xffffffffffffffffffffffffffffffffffffffffffffffffffffffffffffffff\n        /* \"#utility.yul\":18328:18333   */\n      dup3\n        /* \"#utility.yul\":18325:18402   */\n      sub\n        /* \"#utility.yul\":18322:18425   */\n      tag_364\n      jumpi\n        /* \"#utility.yul\":18405:18423   */\n      tag_365\n      tag_146\n      jump\t// in\n    tag_365:\n        /* \"#utility.yul\":18322:18425   */\n    tag_364:\n        /* \"#utility.yul\":18452:18453   */\n      0x01\n        /* \"#utility.yul\":18445:18450   */\n      dup3\n        /* \"#utility.yul\":18441:18454   */\n      add\n        /* \"#utility.yul\":18434:18454   */\n      swap1\n      pop\n        /* \"#utility.yul\":18227:18460   */\n      swap2\n      swap1\n      pop\n      jump\t// out\n\n    auxdata: 0xa2646970667358221220b91352382b43073358fd389d37b52427b17688203186cdfccaf9c1ef52b94a9c64736f6c63430008120033\n}\n",
				"bytecode": {
					"linkReferences": {},
					"object": "6080604052604051620013bb380380620013bb8339818101604052810190620000299190620000b7565b336000806101000a81548173ffffffffffffffffffffffffffffffffffffffff021916908373ffffffffffffffffffffffffffffffffffffffff1602179055508060018190555050620000e9565b600080fd5b6000819050919050565b62000091816200007c565b81146200009d57600080fd5b50565b600081519050620000b18162000086565b92915050565b600060208284031215620000d057620000cf62000077565b5b6000620000e084828501620000a0565b91505092915050565b6112c280620000f96000396000f3fe6080604052600436106100865760003560e01c8063805265e511610059578063805265e5146101455780638da5cb5b14610182578063b69ef8a8146101ad578063d0e30db0146101d8578063fc36e15b146101e257610086565b806312065fe01461008b5780632e1a7d4d146100b65780633477ee2e146100df578063462e91ec1461011c575b600080fd5b34801561009757600080fd5b506100a061020b565b6040516100ad9190610878565b60405180910390f35b3480156100c257600080fd5b506100dd60048036038101906100d891906108d3565b610213565b005b3480156100eb57600080fd5b50610106600480360381019061010191906108d3565b61037e565b6040516101139190610990565b60405180910390f35b34801561012857600080fd5b50610143600480360381019061013e9190610ae7565b61042a565b005b34801561015157600080fd5b5061016c60048036038101906101679190610ae7565b610499565b6040516101799190610878565b60405180910390f35b34801561018e57600080fd5b50610197610509565b6040516101a49190610b71565b60405180910390f35b3480156101b957600080fd5b506101c261052d565b6040516101cf9190610878565b60405180910390f35b6101e0610533565b005b3480156101ee57600080fd5b5061020960048036038101906102049190610ae7565b610613565b005b600047905090565b60008054906101000a900473ffffffffffffffffffffffffffffffffffffffff1673ffffffffffffffffffffffffffffffffffffffff163373ffffffffffffffffffffffffffffffffffffffff16146102a1576040517f08c379a000000000000000000000000000000000000000000000000000000000815260040161029890610bfe565b60405180910390fd5b804710156102e4576040517f08c379a00000000000000000000000000000000000000000000000000000000081526004016102db90610c6a565b60405180910390fd5b80600160008282546102f69190610cb9565b925050819055503373ffffffffffffffffffffffffffffffffffffffff166108fc829081150290604051600060405180830381858888f19350505050158015610343573d6000803e3d6000fd5b507f5b6b431d4476a211bb7d41c20d1aab9ae2321deee0d20be3d9fc9b1093fa6e3d816040516103739190610878565b60405180910390a150565b6002818154811061038e57600080fd5b9060005260206000200160009150905080546103a990610d1c565b80601f01602080910402602001604051908101604052809291908181526020018280546103d590610d1c565b80156104225780601f106103f757610100808354040283529160200191610422565b820191906000526020600020905b81548152906001019060200180831161040557829003601f168201915b505050505081565b60028190806001815401808255809150506001900390600052602060002001600090919091909150908161045e9190610ef9565b507ff29562dad1599aea0ebb142466120aab326d5efa8f839df82a9c064bf78e89388160405161048e9190610990565b60405180910390a150565b60006104a4826107b2565b6104e3576040517f08c379a00000000000000000000000000000000000000000000000000000000081526004016104da90611017565b60405180910390fd5b6003826040516104f39190611073565b9081526020016040518091039020549050919050565b60008054906101000a900473ffffffffffffffffffffffffffffffffffffffff1681565b60015481565b60008054906101000a900473ffffffffffffffffffffffffffffffffffffffff1673ffffffffffffffffffffffffffffffffffffffff163373ffffffffffffffffffffffffffffffffffffffff16146105c1576040517f08c379a00000000000000000000000000000000000000000000000000000000081526004016105b890610bfe565b60405180910390fd5b34600160008282546105d3919061108a565b925050819055507f4d6ce1e535dbade1c23defba91e23b8f791ce5edc0cc320257a2b364e4e38426346040516106099190610878565b60405180910390a1565b600460003373ffffffffffffffffffffffffffffffffffffffff1673ffffffffffffffffffffffffffffffffffffffff16815260200190815260200160002060009054906101000a900460ff16156106a0576040517f08c379a00000000000000000000000000000000000000000000000000000000081526004016106979061110a565b60405180910390fd5b6106a9816107b2565b6106e8576040517f08c379a00000000000000000000000000000000000000000000000000000000081526004016106df90611017565b60405180910390fd5b60016003826040516106fa9190611073565b90815260200160405180910390206000828254610717919061108a565b925050819055506001600460003373ffffffffffffffffffffffffffffffffffffffff1673ffffffffffffffffffffffffffffffffffffffff16815260200190815260200160002060006101000a81548160ff0219169083151502179055507fb7821d50dfbda5ea310faebbeac5217bc1bb0cabe463e76b80e48d11e57df09833826040516107a792919061114b565b60405180910390a150565b600080600090505b60028054905081101561085457826040516020016107d89190611073565b60405160208183030381529060405280519060200120600282815481106108025761080161117b565b5b9060005260206000200160405160200161081c919061122d565b604051602081830303815290604052805190602001200361084157600191505061085a565b808061084c90611244565b9150506107ba565b50600090505b919050565b6000819050919050565b6108728161085f565b82525050565b600060208201905061088d6000830184610869565b92915050565b6000604051905090565b600080fd5b600080fd5b6108b08161085f565b81146108bb57600080fd5b50565b6000813590506108cd816108a7565b92915050565b6000602082840312156108e9576108e861089d565b5b60006108f7848285016108be565b91505092915050565b600081519050919050565b600082825260208201905092915050565b60005b8381101561093a57808201518184015260208101905061091f565b60008484015250505050565b6000601f19601f8301169050919050565b600061096282610900565b61096c818561090b565b935061097c81856020860161091c565b61098581610946565b840191505092915050565b600060208201905081810360008301526109aa8184610957565b905092915050565b600080fd5b600080fd5b7f4e487b7100000000000000000000000000000000000000000000000000000000600052604160045260246000fd5b6109f482610946565b810181811067ffffffffffffffff82111715610a1357610a126109bc565b5b80604052505050565b6000610a26610893565b9050610a3282826109eb565b919050565b600067ffffffffffffffff821115610a5257610a516109bc565b5b610a5b82610946565b9050602081019050919050565b82818337600083830152505050565b6000610a8a610a8584610a37565b610a1c565b905082815260208101848484011115610aa657610aa56109b7565b5b610ab1848285610a68565b509392505050565b600082601f830112610ace57610acd6109b2565b5b8135610ade848260208601610a77565b91505092915050565b600060208284031215610afd57610afc61089d565b5b600082013567ffffffffffffffff811115610b1b57610b1a6108a2565b5b610b2784828501610ab9565b91505092915050565b600073ffffffffffffffffffffffffffffffffffffffff82169050919050565b6000610b5b82610b30565b9050919050565b610b6b81610b50565b82525050565b6000602082019050610b866000830184610b62565b92915050565b7f596f7520617265206e6f7420746865206f776e6572206f66207468697320616360008201527f636f756e74000000000000000000000000000000000000000000000000000000602082015250565b6000610be860258361090b565b9150610bf382610b8c565b604082019050919050565b60006020820190508181036000830152610c1781610bdb565b9050919050565b7f496e73756666696369656e742062616c616e6365000000000000000000000000600082015250565b6000610c5460148361090b565b9150610c5f82610c1e565b602082019050919050565b60006020820190508181036000830152610c8381610c47565b9050919050565b7f4e487b7100000000000000000000000000000000000000000000000000000000600052601160045260246000fd5b6000610cc48261085f565b9150610ccf8361085f565b9250828203905081811115610ce757610ce6610c8a565b5b92915050565b7f4e487b7100000000000000000000000000000000000000000000000000000000600052602260045260246000fd5b60006002820490506001821680610d3457607f821691505b602082108103610d4757610d46610ced565b5b50919050565b60008190508160005260206000209050919050565b60006020601f8301049050919050565b600082821b905092915050565b600060088302610daf7fffffffffffffffffffffffffffffffffffffffffffffffffffffffffffffffff82610d72565b610db98683610d72565b95508019841693508086168417925050509392505050565b6000819050919050565b6000610df6610df1610dec8461085f565b610dd1565b61085f565b9050919050565b6000819050919050565b610e1083610ddb565b610e24610e1c82610dfd565b848454610d7f565b825550505050565b600090565b610e39610e2c565b610e44818484610e07565b505050565b5b81811015610e6857610e5d600082610e31565b600181019050610e4a565b5050565b601f821115610ead57610e7e81610d4d565b610e8784610d62565b81016020851015610e96578190505b610eaa610ea285610d62565b830182610e49565b50505b505050565b600082821c905092915050565b6000610ed060001984600802610eb2565b1980831691505092915050565b6000610ee98383610ebf565b9150826002028217905092915050565b610f0282610900565b67ffffffffffffffff811115610f1b57610f1a6109bc565b5b610f258254610d1c565b610f30828285610e6c565b600060209050601f831160018114610f635760008415610f51578287015190505b610f5b8582610edd565b865550610fc3565b601f198416610f7186610d4d565b60005b82811015610f9957848901518255600182019150602085019450602081019050610f74565b86831015610fb65784890151610fb2601f891682610ebf565b8355505b6001600288020188555050505b505050505050565b7f496e76616c69642063616e646964617465000000000000000000000000000000600082015250565b600061100160118361090b565b915061100c82610fcb565b602082019050919050565b6000602082019050818103600083015261103081610ff4565b9050919050565b600081905092915050565b600061104d82610900565b6110578185611037565b935061106781856020860161091c565b80840191505092915050565b600061107f8284611042565b915081905092915050565b60006110958261085f565b91506110a08361085f565b92508282019050808211156110b8576110b7610c8a565b5b92915050565b7f596f75206861766520616c726561647920766f74656400000000000000000000600082015250565b60006110f460168361090b565b91506110ff826110be565b602082019050919050565b60006020820190508181036000830152611123816110e7565b9050919050565b600061113582610b30565b9050919050565b6111458161112a565b82525050565b6000604082019050611160600083018561113c565b81810360208301526111728184610957565b90509392505050565b7f4e487b7100000000000000000000000000000000000000000000000000000000600052603260045260246000fd5b600081546111b781610d1c565b6111c18186611037565b945060018216600081146111dc57600181146111f157611224565b60ff1983168652811515820286019350611224565b6111fa85610d4d565b60005b8381101561121c578154818901526001820191506020810190506111fd565b838801955050505b50505092915050565b600061123982846111aa565b915081905092915050565b600061124f8261085f565b91507fffffffffffffffffffffffffffffffffffffffffffffffffffffffffffffffff820361128157611280610c8a565b5b60018201905091905056fea2646970667358221220b91352382b43073358fd389d37b52427b17688203186cdfccaf9c1ef52b94a9c64736f6c63430008120033",
					"opcodes": "PUSH1 0x80 PUSH1 0x40 MSTORE PUSH1 0x40 MLOAD PUSH3 0x13BB CODESIZE SUB DUP1 PUSH3 0x13BB DUP4 CODECOPY DUP2 DUP2 ADD PUSH1 0x40 MSTORE DUP2 ADD SWAP1 PUSH3 0x29 SWAP2 SWAP1 PUSH3 0xB7 JUMP JUMPDEST CALLER PUSH1 0x0 DUP1 PUSH2 0x100 EXP DUP2 SLOAD DUP2 PUSH20 0xFFFFFFFFFFFFFFFFFFFFFFFFFFFFFFFFFFFFFFFF MUL NOT AND SWAP1 DUP4 PUSH20 0xFFFFFFFFFFFFFFFFFFFFFFFFFFFFFFFFFFFFFFFF AND MUL OR SWAP1 SSTORE POP DUP1 PUSH1 0x1 DUP2 SWAP1 SSTORE POP POP PUSH3 0xE9 JUMP JUMPDEST PUSH1 0x0 DUP1 REVERT JUMPDEST PUSH1 0x0 DUP2 SWAP1 POP SWAP2 SWAP1 POP JUMP JUMPDEST PUSH3 0x91 DUP2 PUSH3 0x7C JUMP JUMPDEST DUP2 EQ PUSH3 0x9D JUMPI PUSH1 0x0 DUP1 REVERT JUMPDEST POP JUMP JUMPDEST PUSH1 0x0 DUP2 MLOAD SWAP1 POP PUSH3 0xB1 DUP2 PUSH3 0x86 JUMP JUMPDEST SWAP3 SWAP2 POP POP JUMP JUMPDEST PUSH1 0x0 PUSH1 0x20 DUP3 DUP5 SUB SLT ISZERO PUSH3 0xD0 JUMPI PUSH3 0xCF PUSH3 0x77 JUMP JUMPDEST JUMPDEST PUSH1 0x0 PUSH3 0xE0 DUP5 DUP3 DUP6 ADD PUSH3 0xA0 JUMP JUMPDEST SWAP2 POP POP SWAP3 SWAP2 POP POP JUMP JUMPDEST PUSH2 0x12C2 DUP1 PUSH3 0xF9 PUSH1 0x0 CODECOPY PUSH1 0x0 RETURN INVALID PUSH1 0x80 PUSH1 0x40 MSTORE PUSH1 0x4 CALLDATASIZE LT PUSH2 0x86 JUMPI PUSH1 0x0 CALLDATALOAD PUSH1 0xE0 SHR DUP1 PUSH4 0x805265E5 GT PUSH2 0x59 JUMPI DUP1 PUSH4 0x805265E5 EQ PUSH2 0x145 JUMPI DUP1 PUSH4 0x8DA5CB5B EQ PUSH2 0x182 JUMPI DUP1 PUSH4 0xB69EF8A8 EQ PUSH2 0x1AD JUMPI DUP1 PUSH4 0xD0E30DB0 EQ PUSH2 0x1D8 JUMPI DUP1 PUSH4 0xFC36E15B EQ PUSH2 0x1E2 JUMPI PUSH2 0x86 JUMP JUMPDEST DUP1 PUSH4 0x12065FE0 EQ PUSH2 0x8B JUMPI DUP1 PUSH4 0x2E1A7D4D EQ PUSH2 0xB6 JUMPI DUP1 PUSH4 0x3477EE2E EQ PUSH2 0xDF JUMPI DUP1 PUSH4 0x462E91EC EQ PUSH2 0x11C JUMPI JUMPDEST PUSH1 0x0 DUP1 REVERT JUMPDEST CALLVALUE DUP1 ISZERO PUSH2 0x97 JUMPI PUSH1 0x0 DUP1 REVERT JUMPDEST POP PUSH2 0xA0 PUSH2 0x20B JUMP JUMPDEST PUSH1 0x40 MLOAD PUSH2 0xAD SWAP2 SWAP1 PUSH2 0x878 JUMP JUMPDEST PUSH1 0x40 MLOAD DUP1 SWAP2 SUB SWAP1 RETURN JUMPDEST CALLVALUE DUP1 ISZERO PUSH2 0xC2 JUMPI PUSH1 0x0 DUP1 REVERT JUMPDEST POP PUSH2 0xDD PUSH1 0x4 DUP1 CALLDATASIZE SUB DUP2 ADD SWAP1 PUSH2 0xD8 SWAP2 SWAP1 PUSH2 0x8D3 JUMP JUMPDEST PUSH2 0x213 JUMP JUMPDEST STOP JUMPDEST CALLVALUE DUP1 ISZERO PUSH2 0xEB JUMPI PUSH1 0x0 DUP1 REVERT JUMPDEST POP PUSH2 0x106 PUSH1 0x4 DUP1 CALLDATASIZE SUB DUP2 ADD SWAP1 PUSH2 0x101 SWAP2 SWAP1 PUSH2 0x8D3 JUMP JUMPDEST PUSH2 0x37E JUMP JUMPDEST PUSH1 0x40 MLOAD PUSH2 0x113 SWAP2 SWAP1 PUSH2 0x990 JUMP JUMPDEST PUSH1 0x40 MLOAD DUP1 SWAP2 SUB SWAP1 RETURN JUMPDEST CALLVALUE DUP1 ISZERO PUSH2 0x128 JUMPI PUSH1 0x0 DUP1 REVERT JUMPDEST POP PUSH2 0x143 PUSH1 0x4 DUP1 CALLDATASIZE SUB DUP2 ADD SWAP1 PUSH2 0x13E SWAP2 SWAP1 PUSH2 0xAE7 JUMP JUMPDEST PUSH2 0x42A JUMP JUMPDEST STOP JUMPDEST CALLVALUE DUP1 ISZERO PUSH2 0x151 JUMPI PUSH1 0x0 DUP1 REVERT JUMPDEST POP PUSH2 0x16C PUSH1 0x4 DUP1 CALLDATASIZE SUB DUP2 ADD SWAP1 PUSH2 0x167 SWAP2 SWAP1 PUSH2 0xAE7 JUMP JUMPDEST PUSH2 0x499 JUMP JUMPDEST PUSH1 0x40 MLOAD PUSH2 0x179 SWAP2 SWAP1 PUSH2 0x878 JUMP JUMPDEST PUSH1 0x40 MLOAD DUP1 SWAP2 SUB SWAP1 RETURN JUMPDEST CALLVALUE DUP1 ISZERO PUSH2 0x18E JUMPI PUSH1 0x0 DUP1 REVERT JUMPDEST POP PUSH2 0x197 PUSH2 0x509 JUMP JUMPDEST PUSH1 0x40 MLOAD PUSH2 0x1A4 SWAP2 SWAP1 PUSH2 0xB71 JUMP JUMPDEST PUSH1 0x40 MLOAD DUP1 SWAP2 SUB SWAP1 RETURN JUMPDEST CALLVALUE DUP1 ISZERO PUSH2 0x1B9 JUMPI PUSH1 0x0 DUP1 REVERT JUMPDEST POP PUSH2 0x1C2 PUSH2 0x52D JUMP JUMPDEST PUSH1 0x40 MLOAD PUSH2 0x1CF SWAP2 SWAP1 PUSH2 0x878 JUMP JUMPDEST PUSH1 0x40 MLOAD DUP1 SWAP2 SUB SWAP1 RETURN JUMPDEST PUSH2 0x1E0 PUSH2 0x533 JUMP JUMPDEST STOP JUMPDEST CALLVALUE DUP1 ISZERO PUSH2 0x1EE JUMPI PUSH1 0x0 DUP1 REVERT JUMPDEST POP PUSH2 0x209 PUSH1 0x4 DUP1 CALLDATASIZE SUB DUP2 ADD SWAP1 PUSH2 0x204 SWAP2 SWAP1 PUSH2 0xAE7 JUMP JUMPDEST PUSH2 0x613 JUMP JUMPDEST STOP JUMPDEST PUSH1 0x0 SELFBALANCE SWAP1 POP SWAP1 JUMP JUMPDEST PUSH1 0x0 DUP1 SLOAD SWAP1 PUSH2 0x100 EXP SWAP1 DIV PUSH20 0xFFFFFFFFFFFFFFFFFFFFFFFFFFFFFFFFFFFFFFFF AND PUSH20 0xFFFFFFFFFFFFFFFFFFFFFFFFFFFFFFFFFFFFFFFF AND CALLER PUSH20 0xFFFFFFFFFFFFFFFFFFFFFFFFFFFFFFFFFFFFFFFF AND EQ PUSH2 0x2A1 JUMPI PUSH1 0x40 MLOAD PUSH32 0x8C379A000000000000000000000000000000000000000000000000000000000 DUP2 MSTORE PUSH1 0x4 ADD PUSH2 0x298 SWAP1 PUSH2 0xBFE JUMP JUMPDEST PUSH1 0x40 MLOAD DUP1 SWAP2 SUB SWAP1 REVERT JUMPDEST DUP1 SELFBALANCE LT ISZERO PUSH2 0x2E4 JUMPI PUSH1 0x40 MLOAD PUSH32 0x8C379A000000000000000000000000000000000000000000000000000000000 DUP2 MSTORE PUSH1 0x4 ADD PUSH2 0x2DB SWAP1 PUSH2 0xC6A JUMP JUMPDEST PUSH1 0x40 MLOAD DUP1 SWAP2 SUB SWAP1 REVERT JUMPDEST DUP1 PUSH1 0x1 PUSH1 0x0 DUP3 DUP3 SLOAD PUSH2 0x2F6 SWAP2 SWAP1 PUSH2 0xCB9 JUMP JUMPDEST SWAP3 POP POP DUP2 SWAP1 SSTORE POP CALLER PUSH20 0xFFFFFFFFFFFFFFFFFFFFFFFFFFFFFFFFFFFFFFFF AND PUSH2 0x8FC DUP3 SWAP1 DUP2 ISZERO MUL SWAP1 PUSH1 0x40 MLOAD PUSH1 0x0 PUSH1 0x40 MLOAD DUP1 DUP4 SUB DUP2 DUP6 DUP9 DUP9 CALL SWAP4 POP POP POP POP ISZERO DUP1 ISZERO PUSH2 0x343 JUMPI RETURNDATASIZE PUSH1 0x0 DUP1 RETURNDATACOPY RETURNDATASIZE PUSH1 0x0 REVERT JUMPDEST POP PUSH32 0x5B6B431D4476A211BB7D41C20D1AAB9AE2321DEEE0D20BE3D9FC9B1093FA6E3D DUP2 PUSH1 0x40 MLOAD PUSH2 0x373 SWAP2 SWAP1 PUSH2 0x878 JUMP JUMPDEST PUSH1 0x40 MLOAD DUP1 SWAP2 SUB SWAP1 LOG1 POP JUMP JUMPDEST PUSH1 0x2 DUP2 DUP2 SLOAD DUP2 LT PUSH2 0x38E JUMPI PUSH1 0x0 DUP1 REVERT JUMPDEST SWAP1 PUSH1 0x0 MSTORE PUSH1 0x20 PUSH1 0x0 KECCAK256 ADD PUSH1 0x0 SWAP2 POP SWAP1 POP DUP1 SLOAD PUSH2 0x3A9 SWAP1 PUSH2 0xD1C JUMP JUMPDEST DUP1 PUSH1 0x1F ADD PUSH1 0x20 DUP1 SWAP2 DIV MUL PUSH1 0x20 ADD PUSH1 0x40 MLOAD SWAP1 DUP2 ADD PUSH1 0x40 MSTORE DUP1 SWAP3 SWAP2 SWAP1 DUP2 DUP2 MSTORE PUSH1 0x20 ADD DUP3 DUP1 SLOAD PUSH2 0x3D5 SWAP1 PUSH2 0xD1C JUMP JUMPDEST DUP1 ISZERO PUSH2 0x422 JUMPI DUP1 PUSH1 0x1F LT PUSH2 0x3F7 JUMPI PUSH2 0x100 DUP1 DUP4 SLOAD DIV MUL DUP4 MSTORE SWAP2 PUSH1 0x20 ADD SWAP2 PUSH2 0x422 JUMP JUMPDEST DUP3 ADD SWAP2 SWAP1 PUSH1 0x0 MSTORE PUSH1 0x20 PUSH1 0x0 KECCAK256 SWAP1 JUMPDEST DUP2 SLOAD DUP2 MSTORE SWAP1 PUSH1 0x1 ADD SWAP1 PUSH1 0x20 ADD DUP1 DUP4 GT PUSH2 0x405 JUMPI DUP3 SWAP1 SUB PUSH1 0x1F AND DUP3 ADD SWAP2 JUMPDEST POP POP POP POP POP DUP2 JUMP JUMPDEST PUSH1 0x2 DUP2 SWAP1 DUP1 PUSH1 0x1 DUP2 SLOAD ADD DUP1 DUP3 SSTORE DUP1 SWAP2 POP POP PUSH1 0x1 SWAP1 SUB SWAP1 PUSH1 0x0 MSTORE PUSH1 0x20 PUSH1 0x0 KECCAK256 ADD PUSH1 0x0 SWAP1 SWAP2 SWAP1 SWAP2 SWAP1 SWAP2 POP SWAP1 DUP2 PUSH2 0x45E SWAP2 SWAP1 PUSH2 0xEF9 JUMP JUMPDEST POP PUSH32 0xF29562DAD1599AEA0EBB142466120AAB326D5EFA8F839DF82A9C064BF78E8938 DUP2 PUSH1 0x40 MLOAD PUSH2 0x48E SWAP2 SWAP1 PUSH2 0x990 JUMP JUMPDEST PUSH1 0x40 MLOAD DUP1 SWAP2 SUB SWAP1 LOG1 POP JUMP JUMPDEST PUSH1 0x0 PUSH2 0x4A4 DUP3 PUSH2 0x7B2 JUMP JUMPDEST PUSH2 0x4E3 JUMPI PUSH1 0x40 MLOAD PUSH32 0x8C379A000000000000000000000000000000000000000000000000000000000 DUP2 MSTORE PUSH1 0x4 ADD PUSH2 0x4DA SWAP1 PUSH2 0x1017 JUMP JUMPDEST PUSH1 0x40 MLOAD DUP1 SWAP2 SUB SWAP1 REVERT JUMPDEST PUSH1 0x3 DUP3 PUSH1 0x40 MLOAD PUSH2 0x4F3 SWAP2 SWAP1 PUSH2 0x1073 JUMP JUMPDEST SWAP1 DUP2 MSTORE PUSH1 0x20 ADD PUSH1 0x40 MLOAD DUP1 SWAP2 SUB SWAP1 KECCAK256 SLOAD SWAP1 POP SWAP2 SWAP1 POP JUMP JUMPDEST PUSH1 0x0 DUP1 SLOAD SWAP1 PUSH2 0x100 EXP SWAP1 DIV PUSH20 0xFFFFFFFFFFFFFFFFFFFFFFFFFFFFFFFFFFFFFFFF AND DUP2 JUMP JUMPDEST PUSH1 0x1 SLOAD DUP2 JUMP JUMPDEST PUSH1 0x0 DUP1 SLOAD SWAP1 PUSH2 0x100 EXP SWAP1 DIV PUSH20 0xFFFFFFFFFFFFFFFFFFFFFFFFFFFFFFFFFFFFFFFF AND PUSH20 0xFFFFFFFFFFFFFFFFFFFFFFFFFFFFFFFFFFFFFFFF AND CALLER PUSH20 0xFFFFFFFFFFFFFFFFFFFFFFFFFFFFFFFFFFFFFFFF AND EQ PUSH2 0x5C1 JUMPI PUSH1 0x40 MLOAD PUSH32 0x8C379A000000000000000000000000000000000000000000000000000000000 DUP2 MSTORE PUSH1 0x4 ADD PUSH2 0x5B8 SWAP1 PUSH2 0xBFE JUMP JUMPDEST PUSH1 0x40 MLOAD DUP1 SWAP2 SUB SWAP1 REVERT JUMPDEST CALLVALUE PUSH1 0x1 PUSH1 0x0 DUP3 DUP3 SLOAD PUSH2 0x5D3 SWAP2 SWAP1 PUSH2 0x108A JUMP JUMPDEST SWAP3 POP POP DUP2 SWAP1 SSTORE POP PUSH32 0x4D6CE1E535DBADE1C23DEFBA91E23B8F791CE5EDC0CC320257A2B364E4E38426 CALLVALUE PUSH1 0x40 MLOAD PUSH2 0x609 SWAP2 SWAP1 PUSH2 0x878 JUMP JUMPDEST PUSH1 0x40 MLOAD DUP1 SWAP2 SUB SWAP1 LOG1 JUMP JUMPDEST PUSH1 0x4 PUSH1 0x0 CALLER PUSH20 0xFFFFFFFFFFFFFFFFFFFFFFFFFFFFFFFFFFFFFFFF AND PUSH20 0xFFFFFFFFFFFFFFFFFFFFFFFFFFFFFFFFFFFFFFFF AND DUP2 MSTORE PUSH1 0x20 ADD SWAP1 DUP2 MSTORE PUSH1 0x20 ADD PUSH1 0x0 KECCAK256 PUSH1 0x0 SWAP1 SLOAD SWAP1 PUSH2 0x100 EXP SWAP1 DIV PUSH1 0xFF AND ISZERO PUSH2 0x6A0 JUMPI PUSH1 0x40 MLOAD PUSH32 0x8C379A000000000000000000000000000000000000000000000000000000000 DUP2 MSTORE PUSH1 0x4 ADD PUSH2 0x697 SWAP1 PUSH2 0x110A JUMP JUMPDEST PUSH1 0x40 MLOAD DUP1 SWAP2 SUB SWAP1 REVERT JUMPDEST PUSH2 0x6A9 DUP2 PUSH2 0x7B2 JUMP JUMPDEST PUSH2 0x6E8 JUMPI PUSH1 0x40 MLOAD PUSH32 0x8C379A000000000000000000000000000000000000000000000000000000000 DUP2 MSTORE PUSH1 0x4 ADD PUSH2 0x6DF SWAP1 PUSH2 0x1017 JUMP JUMPDEST PUSH1 0x40 MLOAD DUP1 SWAP2 SUB SWAP1 REVERT JUMPDEST PUSH1 0x1 PUSH1 0x3 DUP3 PUSH1 0x40 MLOAD PUSH2 0x6FA SWAP2 SWAP1 PUSH2 0x1073 JUMP JUMPDEST SWAP1 DUP2 MSTORE PUSH1 0x20 ADD PUSH1 0x40 MLOAD DUP1 SWAP2 SUB SWAP1 KECCAK256 PUSH1 0x0 DUP3 DUP3 SLOAD PUSH2 0x717 SWAP2 SWAP1 PUSH2 0x108A JUMP JUMPDEST SWAP3 POP POP DUP2 SWAP1 SSTORE POP PUSH1 0x1 PUSH1 0x4 PUSH1 0x0 CALLER PUSH20 0xFFFFFFFFFFFFFFFFFFFFFFFFFFFFFFFFFFFFFFFF AND PUSH20 0xFFFFFFFFFFFFFFFFFFFFFFFFFFFFFFFFFFFFFFFF AND DUP2 MSTORE PUSH1 0x20 ADD SWAP1 DUP2 MSTORE PUSH1 0x20 ADD PUSH1 0x0 KECCAK256 PUSH1 0x0 PUSH2 0x100 EXP DUP2 SLOAD DUP2 PUSH1 0xFF MUL NOT AND SWAP1 DUP4 ISZERO ISZERO MUL OR SWAP1 SSTORE POP PUSH32 0xB7821D50DFBDA5EA310FAEBBEAC5217BC1BB0CABE463E76B80E48D11E57DF098 CALLER DUP3 PUSH1 0x40 MLOAD PUSH2 0x7A7 SWAP3 SWAP2 SWAP1 PUSH2 0x114B JUMP JUMPDEST PUSH1 0x40 MLOAD DUP1 SWAP2 SUB SWAP1 LOG1 POP JUMP JUMPDEST PUSH1 0x0 DUP1 PUSH1 0x0 SWAP1 POP JUMPDEST PUSH1 0x2 DUP1 SLOAD SWAP1 POP DUP2 LT ISZERO PUSH2 0x854 JUMPI DUP3 PUSH1 0x40 MLOAD PUSH1 0x20 ADD PUSH2 0x7D8 SWAP2 SWAP1 PUSH2 0x1073 JUMP JUMPDEST PUSH1 0x40 MLOAD PUSH1 0x20 DUP2 DUP4 SUB SUB DUP2 MSTORE SWAP1 PUSH1 0x40 MSTORE DUP1 MLOAD SWAP1 PUSH1 0x20 ADD KECCAK256 PUSH1 0x2 DUP3 DUP2 SLOAD DUP2 LT PUSH2 0x802 JUMPI PUSH2 0x801 PUSH2 0x117B JUMP JUMPDEST JUMPDEST SWAP1 PUSH1 0x0 MSTORE PUSH1 0x20 PUSH1 0x0 KECCAK256 ADD PUSH1 0x40 MLOAD PUSH1 0x20 ADD PUSH2 0x81C SWAP2 SWAP1 PUSH2 0x122D JUMP JUMPDEST PUSH1 0x40 MLOAD PUSH1 0x20 DUP2 DUP4 SUB SUB DUP2 MSTORE SWAP1 PUSH1 0x40 MSTORE DUP1 MLOAD SWAP1 PUSH1 0x20 ADD KECCAK256 SUB PUSH2 0x841 JUMPI PUSH1 0x1 SWAP2 POP POP PUSH2 0x85A JUMP JUMPDEST DUP1 DUP1 PUSH2 0x84C SWAP1 PUSH2 0x1244 JUMP JUMPDEST SWAP2 POP POP PUSH2 0x7BA JUMP JUMPDEST POP PUSH1 0x0 SWAP1 POP JUMPDEST SWAP2 SWAP1 POP JUMP JUMPDEST PUSH1 0x0 DUP2 SWAP1 POP SWAP2 SWAP1 POP JUMP JUMPDEST PUSH2 0x872 DUP2 PUSH2 0x85F JUMP JUMPDEST DUP3 MSTORE POP POP JUMP JUMPDEST PUSH1 0x0 PUSH1 0x20 DUP3 ADD SWAP1 POP PUSH2 0x88D PUSH1 0x0 DUP4 ADD DUP5 PUSH2 0x869 JUMP JUMPDEST SWAP3 SWAP2 POP POP JUMP JUMPDEST PUSH1 0x0 PUSH1 0x40 MLOAD SWAP1 POP SWAP1 JUMP JUMPDEST PUSH1 0x0 DUP1 REVERT JUMPDEST PUSH1 0x0 DUP1 REVERT JUMPDEST PUSH2 0x8B0 DUP2 PUSH2 0x85F JUMP JUMPDEST DUP2 EQ PUSH2 0x8BB JUMPI PUSH1 0x0 DUP1 REVERT JUMPDEST POP JUMP JUMPDEST PUSH1 0x0 DUP2 CALLDATALOAD SWAP1 POP PUSH2 0x8CD DUP2 PUSH2 0x8A7 JUMP JUMPDEST SWAP3 SWAP2 POP POP JUMP JUMPDEST PUSH1 0x0 PUSH1 0x20 DUP3 DUP5 SUB SLT ISZERO PUSH2 0x8E9 JUMPI PUSH2 0x8E8 PUSH2 0x89D JUMP JUMPDEST JUMPDEST PUSH1 0x0 PUSH2 0x8F7 DUP5 DUP3 DUP6 ADD PUSH2 0x8BE JUMP JUMPDEST SWAP2 POP POP SWAP3 SWAP2 POP POP JUMP JUMPDEST PUSH1 0x0 DUP2 MLOAD SWAP1 POP SWAP2 SWAP1 POP JUMP JUMPDEST PUSH1 0x0 DUP3 DUP3 MSTORE PUSH1 0x20 DUP3 ADD SWAP1 POP SWAP3 SWAP2 POP POP JUMP JUMPDEST PUSH1 0x0 JUMPDEST DUP4 DUP2 LT ISZERO PUSH2 0x93A JUMPI DUP1 DUP3 ADD MLOAD DUP2 DUP5 ADD MSTORE PUSH1 0x20 DUP2 ADD SWAP1 POP PUSH2 0x91F JUMP JUMPDEST PUSH1 0x0 DUP5 DUP5 ADD MSTORE POP POP POP POP JUMP JUMPDEST PUSH1 0x0 PUSH1 0x1F NOT PUSH1 0x1F DUP4 ADD AND SWAP1 POP SWAP2 SWAP1 POP JUMP JUMPDEST PUSH1 0x0 PUSH2 0x962 DUP3 PUSH2 0x900 JUMP JUMPDEST PUSH2 0x96C DUP2 DUP6 PUSH2 0x90B JUMP JUMPDEST SWAP4 POP PUSH2 0x97C DUP2 DUP6 PUSH1 0x20 DUP7 ADD PUSH2 0x91C JUMP JUMPDEST PUSH2 0x985 DUP2 PUSH2 0x946 JUMP JUMPDEST DUP5 ADD SWAP2 POP POP SWAP3 SWAP2 POP POP JUMP JUMPDEST PUSH1 0x0 PUSH1 0x20 DUP3 ADD SWAP1 POP DUP2 DUP2 SUB PUSH1 0x0 DUP4 ADD MSTORE PUSH2 0x9AA DUP2 DUP5 PUSH2 0x957 JUMP JUMPDEST SWAP1 POP SWAP3 SWAP2 POP POP JUMP JUMPDEST PUSH1 0x0 DUP1 REVERT JUMPDEST PUSH1 0x0 DUP1 REVERT JUMPDEST PUSH32 0x4E487B7100000000000000000000000000000000000000000000000000000000 PUSH1 0x0 MSTORE PUSH1 0x41 PUSH1 0x4 MSTORE PUSH1 0x24 PUSH1 0x0 REVERT JUMPDEST PUSH2 0x9F4 DUP3 PUSH2 0x946 JUMP JUMPDEST DUP2 ADD DUP2 DUP2 LT PUSH8 0xFFFFFFFFFFFFFFFF DUP3 GT OR ISZERO PUSH2 0xA13 JUMPI PUSH2 0xA12 PUSH2 0x9BC JUMP JUMPDEST JUMPDEST DUP1 PUSH1 0x40 MSTORE POP POP POP JUMP JUMPDEST PUSH1 0x0 PUSH2 0xA26 PUSH2 0x893 JUMP JUMPDEST SWAP1 POP PUSH2 0xA32 DUP3 DUP3 PUSH2 0x9EB JUMP JUMPDEST SWAP2 SWAP1 POP JUMP JUMPDEST PUSH1 0x0 PUSH8 0xFFFFFFFFFFFFFFFF DUP3 GT ISZERO PUSH2 0xA52 JUMPI PUSH2 0xA51 PUSH2 0x9BC JUMP JUMPDEST JUMPDEST PUSH2 0xA5B DUP3 PUSH2 0x946 JUMP JUMPDEST SWAP1 POP PUSH1 0x20 DUP2 ADD SWAP1 POP SWAP2 SWAP1 POP JUMP JUMPDEST DUP3 DUP2 DUP4 CALLDATACOPY PUSH1 0x0 DUP4 DUP4 ADD MSTORE POP POP POP JUMP JUMPDEST PUSH1 0x0 PUSH2 0xA8A PUSH2 0xA85 DUP5 PUSH2 0xA37 JUMP JUMPDEST PUSH2 0xA1C JUMP JUMPDEST SWAP1 POP DUP3 DUP2 MSTORE PUSH1 0x20 DUP2 ADD DUP5 DUP5 DUP5 ADD GT ISZERO PUSH2 0xAA6 JUMPI PUSH2 0xAA5 PUSH2 0x9B7 JUMP JUMPDEST JUMPDEST PUSH2 0xAB1 DUP5 DUP3 DUP6 PUSH2 0xA68 JUMP JUMPDEST POP SWAP4 SWAP3 POP POP POP JUMP JUMPDEST PUSH1 0x0 DUP3 PUSH1 0x1F DUP4 ADD SLT PUSH2 0xACE JUMPI PUSH2 0xACD PUSH2 0x9B2 JUMP JUMPDEST JUMPDEST DUP2 CALLDATALOAD PUSH2 0xADE DUP5 DUP3 PUSH1 0x20 DUP7 ADD PUSH2 0xA77 JUMP JUMPDEST SWAP2 POP POP SWAP3 SWAP2 POP POP JUMP JUMPDEST PUSH1 0x0 PUSH1 0x20 DUP3 DUP5 SUB SLT ISZERO PUSH2 0xAFD JUMPI PUSH2 0xAFC PUSH2 0x89D JUMP JUMPDEST JUMPDEST PUSH1 0x0 DUP3 ADD CALLDATALOAD PUSH8 0xFFFFFFFFFFFFFFFF DUP2 GT ISZERO PUSH2 0xB1B JUMPI PUSH2 0xB1A PUSH2 0x8A2 JUMP JUMPDEST JUMPDEST PUSH2 0xB27 DUP5 DUP3 DUP6 ADD PUSH2 0xAB9 JUMP JUMPDEST SWAP2 POP POP SWAP3 SWAP2 POP POP JUMP JUMPDEST PUSH1 0x0 PUSH20 0xFFFFFFFFFFFFFFFFFFFFFFFFFFFFFFFFFFFFFFFF DUP3 AND SWAP1 POP SWAP2 SWAP1 POP JUMP JUMPDEST PUSH1 0x0 PUSH2 0xB5B DUP3 PUSH2 0xB30 JUMP JUMPDEST SWAP1 POP SWAP2 SWAP1 POP JUMP JUMPDEST PUSH2 0xB6B DUP2 PUSH2 0xB50 JUMP JUMPDEST DUP3 MSTORE POP POP JUMP JUMPDEST PUSH1 0x0 PUSH1 0x20 DUP3 ADD SWAP1 POP PUSH2 0xB86 PUSH1 0x0 DUP4 ADD DUP5 PUSH2 0xB62 JUMP JUMPDEST SWAP3 SWAP2 POP POP JUMP JUMPDEST PUSH32 0x596F7520617265206E6F7420746865206F776E6572206F662074686973206163 PUSH1 0x0 DUP3 ADD MSTORE PUSH32 0x636F756E74000000000000000000000000000000000000000000000000000000 PUSH1 0x20 DUP3 ADD MSTORE POP JUMP JUMPDEST PUSH1 0x0 PUSH2 0xBE8 PUSH1 0x25 DUP4 PUSH2 0x90B JUMP JUMPDEST SWAP2 POP PUSH2 0xBF3 DUP3 PUSH2 0xB8C JUMP JUMPDEST PUSH1 0x40 DUP3 ADD SWAP1 POP SWAP2 SWAP1 POP JUMP JUMPDEST PUSH1 0x0 PUSH1 0x20 DUP3 ADD SWAP1 POP DUP2 DUP2 SUB PUSH1 0x0 DUP4 ADD MSTORE PUSH2 0xC17 DUP2 PUSH2 0xBDB JUMP JUMPDEST SWAP1 POP SWAP2 SWAP1 POP JUMP JUMPDEST PUSH32 0x496E73756666696369656E742062616C616E6365000000000000000000000000 PUSH1 0x0 DUP3 ADD MSTORE POP JUMP JUMPDEST PUSH1 0x0 PUSH2 0xC54 PUSH1 0x14 DUP4 PUSH2 0x90B JUMP JUMPDEST SWAP2 POP PUSH2 0xC5F DUP3 PUSH2 0xC1E JUMP JUMPDEST PUSH1 0x20 DUP3 ADD SWAP1 POP SWAP2 SWAP1 POP JUMP JUMPDEST PUSH1 0x0 PUSH1 0x20 DUP3 ADD SWAP1 POP DUP2 DUP2 SUB PUSH1 0x0 DUP4 ADD MSTORE PUSH2 0xC83 DUP2 PUSH2 0xC47 JUMP JUMPDEST SWAP1 POP SWAP2 SWAP1 POP JUMP JUMPDEST PUSH32 0x4E487B7100000000000000000000000000000000000000000000000000000000 PUSH1 0x0 MSTORE PUSH1 0x11 PUSH1 0x4 MSTORE PUSH1 0x24 PUSH1 0x0 REVERT JUMPDEST PUSH1 0x0 PUSH2 0xCC4 DUP3 PUSH2 0x85F JUMP JUMPDEST SWAP2 POP PUSH2 0xCCF DUP4 PUSH2 0x85F JUMP JUMPDEST SWAP3 POP DUP3 DUP3 SUB SWAP1 POP DUP2 DUP2 GT ISZERO PUSH2 0xCE7 JUMPI PUSH2 0xCE6 PUSH2 0xC8A JUMP JUMPDEST JUMPDEST SWAP3 SWAP2 POP POP JUMP JUMPDEST PUSH32 0x4E487B7100000000000000000000000000000000000000000000000000000000 PUSH1 0x0 MSTORE PUSH1 0x22 PUSH1 0x4 MSTORE PUSH1 0x24 PUSH1 0x0 REVERT JUMPDEST PUSH1 0x0 PUSH1 0x2 DUP3 DIV SWAP1 POP PUSH1 0x1 DUP3 AND DUP1 PUSH2 0xD34 JUMPI PUSH1 0x7F DUP3 AND SWAP2 POP JUMPDEST PUSH1 0x20 DUP3 LT DUP2 SUB PUSH2 0xD47 JUMPI PUSH2 0xD46 PUSH2 0xCED JUMP JUMPDEST JUMPDEST POP SWAP2 SWAP1 POP JUMP JUMPDEST PUSH1 0x0 DUP2 SWAP1 POP DUP2 PUSH1 0x0 MSTORE PUSH1 0x20 PUSH1 0x0 KECCAK256 SWAP1 POP SWAP2 SWAP1 POP JUMP JUMPDEST PUSH1 0x0 PUSH1 0x20 PUSH1 0x1F DUP4 ADD DIV SWAP1 POP SWAP2 SWAP1 POP JUMP JUMPDEST PUSH1 0x0 DUP3 DUP3 SHL SWAP1 POP SWAP3 SWAP2 POP POP JUMP JUMPDEST PUSH1 0x0 PUSH1 0x8 DUP4 MUL PUSH2 0xDAF PUSH32 0xFFFFFFFFFFFFFFFFFFFFFFFFFFFFFFFFFFFFFFFFFFFFFFFFFFFFFFFFFFFFFFFF DUP3 PUSH2 0xD72 JUMP JUMPDEST PUSH2 0xDB9 DUP7 DUP4 PUSH2 0xD72 JUMP JUMPDEST SWAP6 POP DUP1 NOT DUP5 AND SWAP4 POP DUP1 DUP7 AND DUP5 OR SWAP3 POP POP POP SWAP4 SWAP3 POP POP POP JUMP JUMPDEST PUSH1 0x0 DUP2 SWAP1 POP SWAP2 SWAP1 POP JUMP JUMPDEST PUSH1 0x0 PUSH2 0xDF6 PUSH2 0xDF1 PUSH2 0xDEC DUP5 PUSH2 0x85F JUMP JUMPDEST PUSH2 0xDD1 JUMP JUMPDEST PUSH2 0x85F JUMP JUMPDEST SWAP1 POP SWAP2 SWAP1 POP JUMP JUMPDEST PUSH1 0x0 DUP2 SWAP1 POP SWAP2 SWAP1 POP JUMP JUMPDEST PUSH2 0xE10 DUP4 PUSH2 0xDDB JUMP JUMPDEST PUSH2 0xE24 PUSH2 0xE1C DUP3 PUSH2 0xDFD JUMP JUMPDEST DUP5 DUP5 SLOAD PUSH2 0xD7F JUMP JUMPDEST DUP3 SSTORE POP POP POP POP JUMP JUMPDEST PUSH1 0x0 SWAP1 JUMP JUMPDEST PUSH2 0xE39 PUSH2 0xE2C JUMP JUMPDEST PUSH2 0xE44 DUP2 DUP5 DUP5 PUSH2 0xE07 JUMP JUMPDEST POP POP POP JUMP JUMPDEST JUMPDEST DUP2 DUP2 LT ISZERO PUSH2 0xE68 JUMPI PUSH2 0xE5D PUSH1 0x0 DUP3 PUSH2 0xE31 JUMP JUMPDEST PUSH1 0x1 DUP2 ADD SWAP1 POP PUSH2 0xE4A JUMP JUMPDEST POP POP JUMP JUMPDEST PUSH1 0x1F DUP3 GT ISZERO PUSH2 0xEAD JUMPI PUSH2 0xE7E DUP2 PUSH2 0xD4D JUMP JUMPDEST PUSH2 0xE87 DUP5 PUSH2 0xD62 JUMP JUMPDEST DUP2 ADD PUSH1 0x20 DUP6 LT ISZERO PUSH2 0xE96 JUMPI DUP2 SWAP1 POP JUMPDEST PUSH2 0xEAA PUSH2 0xEA2 DUP6 PUSH2 0xD62 JUMP JUMPDEST DUP4 ADD DUP3 PUSH2 0xE49 JUMP JUMPDEST POP POP JUMPDEST POP POP POP JUMP JUMPDEST PUSH1 0x0 DUP3 DUP3 SHR SWAP1 POP SWAP3 SWAP2 POP POP JUMP JUMPDEST PUSH1 0x0 PUSH2 0xED0 PUSH1 0x0 NOT DUP5 PUSH1 0x8 MUL PUSH2 0xEB2 JUMP JUMPDEST NOT DUP1 DUP4 AND SWAP2 POP POP SWAP3 SWAP2 POP POP JUMP JUMPDEST PUSH1 0x0 PUSH2 0xEE9 DUP4 DUP4 PUSH2 0xEBF JUMP JUMPDEST SWAP2 POP DUP3 PUSH1 0x2 MUL DUP3 OR SWAP1 POP SWAP3 SWAP2 POP POP JUMP JUMPDEST PUSH2 0xF02 DUP3 PUSH2 0x900 JUMP JUMPDEST PUSH8 0xFFFFFFFFFFFFFFFF DUP2 GT ISZERO PUSH2 0xF1B JUMPI PUSH2 0xF1A PUSH2 0x9BC JUMP JUMPDEST JUMPDEST PUSH2 0xF25 DUP3 SLOAD PUSH2 0xD1C JUMP JUMPDEST PUSH2 0xF30 DUP3 DUP3 DUP6 PUSH2 0xE6C JUMP JUMPDEST PUSH1 0x0 PUSH1 0x20 SWAP1 POP PUSH1 0x1F DUP4 GT PUSH1 0x1 DUP2 EQ PUSH2 0xF63 JUMPI PUSH1 0x0 DUP5 ISZERO PUSH2 0xF51 JUMPI DUP3 DUP8 ADD MLOAD SWAP1 POP JUMPDEST PUSH2 0xF5B DUP6 DUP3 PUSH2 0xEDD JUMP JUMPDEST DUP7 SSTORE POP PUSH2 0xFC3 JUMP JUMPDEST PUSH1 0x1F NOT DUP5 AND PUSH2 0xF71 DUP7 PUSH2 0xD4D JUMP JUMPDEST PUSH1 0x0 JUMPDEST DUP3 DUP2 LT ISZERO PUSH2 0xF99 JUMPI DUP5 DUP10 ADD MLOAD DUP3 SSTORE PUSH1 0x1 DUP3 ADD SWAP2 POP PUSH1 0x20 DUP6 ADD SWAP5 POP PUSH1 0x20 DUP2 ADD SWAP1 POP PUSH2 0xF74 JUMP JUMPDEST DUP7 DUP4 LT ISZERO PUSH2 0xFB6 JUMPI DUP5 DUP10 ADD MLOAD PUSH2 0xFB2 PUSH1 0x1F DUP10 AND DUP3 PUSH2 0xEBF JUMP JUMPDEST DUP4 SSTORE POP JUMPDEST PUSH1 0x1 PUSH1 0x2 DUP9 MUL ADD DUP9 SSTORE POP POP POP JUMPDEST POP POP POP POP POP POP JUMP JUMPDEST PUSH32 0x496E76616C69642063616E646964617465000000000000000000000000000000 PUSH1 0x0 DUP3 ADD MSTORE POP JUMP JUMPDEST PUSH1 0x0 PUSH2 0x1001 PUSH1 0x11 DUP4 PUSH2 0x90B JUMP JUMPDEST SWAP2 POP PUSH2 0x100C DUP3 PUSH2 0xFCB JUMP JUMPDEST PUSH1 0x20 DUP3 ADD SWAP1 POP SWAP2 SWAP1 POP JUMP JUMPDEST PUSH1 0x0 PUSH1 0x20 DUP3 ADD SWAP1 POP DUP2 DUP2 SUB PUSH1 0x0 DUP4 ADD MSTORE PUSH2 0x1030 DUP2 PUSH2 0xFF4 JUMP JUMPDEST SWAP1 POP SWAP2 SWAP1 POP JUMP JUMPDEST PUSH1 0x0 DUP2 SWAP1 POP SWAP3 SWAP2 POP POP JUMP JUMPDEST PUSH1 0x0 PUSH2 0x104D DUP3 PUSH2 0x900 JUMP JUMPDEST PUSH2 0x1057 DUP2 DUP6 PUSH2 0x1037 JUMP JUMPDEST SWAP4 POP PUSH2 0x1067 DUP2 DUP6 PUSH1 0x20 DUP7 ADD PUSH2 0x91C JUMP JUMPDEST DUP1 DUP5 ADD SWAP2 POP POP SWAP3 SWAP2 POP POP JUMP JUMPDEST PUSH1 0x0 PUSH2 0x107F DUP3 DUP5 PUSH2 0x1042 JUMP JUMPDEST SWAP2 POP DUP2 SWAP1 POP SWAP3 SWAP2 POP POP JUMP JUMPDEST PUSH1 0x0 PUSH2 0x1095 DUP3 PUSH2 0x85F JUMP JUMPDEST SWAP2 POP PUSH2 0x10A0 DUP4 PUSH2 0x85F JUMP JUMPDEST SWAP3 POP DUP3 DUP3 ADD SWAP1 POP DUP1 DUP3 GT ISZERO PUSH2 0x10B8 JUMPI PUSH2 0x10B7 PUSH2 0xC8A JUMP JUMPDEST JUMPDEST SWAP3 SWAP2 POP POP JUMP JUMPDEST PUSH32 0x596F75206861766520616C726561647920766F74656400000000000000000000 PUSH1 0x0 DUP3 ADD MSTORE POP JUMP JUMPDEST PUSH1 0x0 PUSH2 0x10F4 PUSH1 0x16 DUP4 PUSH2 0x90B JUMP JUMPDEST SWAP2 POP PUSH2 0x10FF DUP3 PUSH2 0x10BE JUMP JUMPDEST PUSH1 0x20 DUP3 ADD SWAP1 POP SWAP2 SWAP1 POP JUMP JUMPDEST PUSH1 0x0 PUSH1 0x20 DUP3 ADD SWAP1 POP DUP2 DUP2 SUB PUSH1 0x0 DUP4 ADD MSTORE PUSH2 0x1123 DUP2 PUSH2 0x10E7 JUMP JUMPDEST SWAP1 POP SWAP2 SWAP1 POP JUMP JUMPDEST PUSH1 0x0 PUSH2 0x1135 DUP3 PUSH2 0xB30 JUMP JUMPDEST SWAP1 POP SWAP2 SWAP1 POP JUMP JUMPDEST PUSH2 0x1145 DUP2 PUSH2 0x112A JUMP JUMPDEST DUP3 MSTORE POP POP JUMP JUMPDEST PUSH1 0x0 PUSH1 0x40 DUP3 ADD SWAP1 POP PUSH2 0x1160 PUSH1 0x0 DUP4 ADD DUP6 PUSH2 0x113C JUMP JUMPDEST DUP2 DUP2 SUB PUSH1 0x20 DUP4 ADD MSTORE PUSH2 0x1172 DUP2 DUP5 PUSH2 0x957 JUMP JUMPDEST SWAP1 POP SWAP4 SWAP3 POP POP POP JUMP JUMPDEST PUSH32 0x4E487B7100000000000000000000000000000000000000000000000000000000 PUSH1 0x0 MSTORE PUSH1 0x32 PUSH1 0x4 MSTORE PUSH1 0x24 PUSH1 0x0 REVERT JUMPDEST PUSH1 0x0 DUP2 SLOAD PUSH2 0x11B7 DUP2 PUSH2 0xD1C JUMP JUMPDEST PUSH2 0x11C1 DUP2 DUP7 PUSH2 0x1037 JUMP JUMPDEST SWAP5 POP PUSH1 0x1 DUP3 AND PUSH1 0x0 DUP2 EQ PUSH2 0x11DC JUMPI PUSH1 0x1 DUP2 EQ PUSH2 0x11F1 JUMPI PUSH2 0x1224 JUMP JUMPDEST PUSH1 0xFF NOT DUP4 AND DUP7 MSTORE DUP2 ISZERO ISZERO DUP3 MUL DUP7 ADD SWAP4 POP PUSH2 0x1224 JUMP JUMPDEST PUSH2 0x11FA DUP6 PUSH2 0xD4D JUMP JUMPDEST PUSH1 0x0 JUMPDEST DUP4 DUP2 LT ISZERO PUSH2 0x121C JUMPI DUP2 SLOAD DUP2 DUP10 ADD MSTORE PUSH1 0x1 DUP3 ADD SWAP2 POP PUSH1 0x20 DUP2 ADD SWAP1 POP PUSH2 0x11FD JUMP JUMPDEST DUP4 DUP9 ADD SWAP6 POP POP POP JUMPDEST POP POP POP SWAP3 SWAP2 POP POP JUMP JUMPDEST PUSH1 0x0 PUSH2 0x1239 DUP3 DUP5 PUSH2 0x11AA JUMP JUMPDEST SWAP2 POP DUP2 SWAP1 POP SWAP3 SWAP2 POP POP JUMP JUMPDEST PUSH1 0x0 PUSH2 0x124F DUP3 PUSH2 0x85F JUMP JUMPDEST SWAP2 POP PUSH32 0xFFFFFFFFFFFFFFFFFFFFFFFFFFFFFFFFFFFFFFFFFFFFFFFFFFFFFFFFFFFFFFFF DUP3 SUB PUSH2 0x1281 JUMPI PUSH2 0x1280 PUSH2 0xC8A JUMP JUMPDEST JUMPDEST PUSH1 0x1 DUP3 ADD SWAP1 POP SWAP2 SWAP1 POP JUMP INVALID LOG2 PUSH5 0x6970667358 0x22 SLT KECCAK256 0xB9 SGT MSTORE CODESIZE 0x2B NUMBER SMOD CALLER PC REVERT CODESIZE SWAP14 CALLDATACOPY 0xB5 0x24 0x27 0xB1 PUSH23 0x88203186CDFCCAF9C1EF52B94A9C64736F6C6343000812 STOP CALLER "
				},
				"gasEstimates": {
					"creation": {
						"codeDepositCost": "960400",
						"executionCost": "infinite",
						"totalCost": "infinite"
					},
					"external": {
						"addCandidate(string)": "infinite",
						"balance()": "2473",
						"candidates(uint256)": "infinite",
						"deposit()": "infinite",
						"getBalance()": "340",
						"getVotes(string)": "infinite",
						"owner()": "2533",
						"vote(string)": "infinite",
						"withdraw(uint256)": "infinite"
					},
					"internal": {
						"isValidCandidate(string memory)": "infinite"
					}
				},
				"methodIdentifiers": {
					"addCandidate(string)": "462e91ec",
					"balance()": "b69ef8a8",
					"candidates(uint256)": "3477ee2e",
					"deposit()": "d0e30db0",
					"getBalance()": "12065fe0",
					"getVotes(string)": "805265e5",
					"owner()": "8da5cb5b",
					"vote(string)": "fc36e15b",
					"withdraw(uint256)": "2e1a7d4d"
				}
			},
			"storageLayout": {
				"storage": [
					{
						"astId": 3,
						"contract": "Smart Contract Management - ETH + AVAX/contracts/Assessment.sol:Assessment",
						"label": "owner",
						"offset": 0,
						"slot": "0",
						"type": "t_address_payable"
					},
					{
						"astId": 5,
						"contract": "Smart Contract Management - ETH + AVAX/contracts/Assessment.sol:Assessment",
						"label": "balance",
						"offset": 0,
						"slot": "1",
						"type": "t_uint256"
					},
					{
						"astId": 8,
						"contract": "Smart Contract Management - ETH + AVAX/contracts/Assessment.sol:Assessment",
						"label": "candidates",
						"offset": 0,
						"slot": "2",
						"type": "t_array(t_string_storage)dyn_storage"
					},
					{
						"astId": 12,
						"contract": "Smart Contract Management - ETH + AVAX/contracts/Assessment.sol:Assessment",
						"label": "votes",
						"offset": 0,
						"slot": "3",
						"type": "t_mapping(t_string_memory_ptr,t_uint256)"
					},
					{
						"astId": 16,
						"contract": "Smart Contract Management - ETH + AVAX/contracts/Assessment.sol:Assessment",
						"label": "hasVoted",
						"offset": 0,
						"slot": "4",
						"type": "t_mapping(t_address,t_bool)"
					}
				],
				"types": {
					"t_address": {
						"encoding": "inplace",
						"label": "address",
						"numberOfBytes": "20"
					},
					"t_address_payable": {
						"encoding": "inplace",
						"label": "address payable",
						"numberOfBytes": "20"
					},
					"t_array(t_string_storage)dyn_storage": {
						"base": "t_string_storage",
						"encoding": "dynamic_array",
						"label": "string[]",
						"numberOfBytes": "32"
					},
					"t_bool": {
						"encoding": "inplace",
						"label": "bool",
						"numberOfBytes": "1"
					},
					"t_mapping(t_address,t_bool)": {
						"encoding": "mapping",
						"key": "t_address",
						"label": "mapping(address => bool)",
						"numberOfBytes": "32",
						"value": "t_bool"
					},
					"t_mapping(t_string_memory_ptr,t_uint256)": {
						"encoding": "mapping",
						"key": "t_string_memory_ptr",
						"label": "mapping(string => uint256)",
						"numberOfBytes": "32",
						"value": "t_uint256"
					},
					"t_string_memory_ptr": {
						"encoding": "bytes",
						"label": "string",
						"numberOfBytes": "32"
					},
					"t_string_storage": {
						"encoding": "bytes",
						"label": "string",
						"numberOfBytes": "32"
					},
					"t_uint256": {
						"encoding": "inplace",
						"label": "uint256",
						"numberOfBytes": "32"
					}
				}
			},
			"userdoc": {
				"kind": "user",
				"methods": {},
				"version": 1
			}
		}
	}
}